:020000040800F2
:10000000A805002005010008CD16000871100008A1
:10001000C91600080B0B0008132A00080000000096
:10002000000000000000000000000000E11F0008C8
:100030000F0B000800000000851E000829210008A1
:100040001F0100081F0100081F0100081F01000810
:100050001F0100081F0100081F0100081F01000800
:100060001F0100081F0100081F0100081F010008F0
:100070001F0100081F0100081F0100081F010008E0
:100080001F0100081F0100081F0100081F010008D0
:100090001F0100081F0100081F010008510C000883
:1000A0001F0100081F0100081F0100081F010008B0
:1000B0001F010008CD230008E92300081F010008E4
:1000C0001F0100081F0100081F0100081F01000890
:1000D0001F0100081F010008E12700081F01000898
:1000E0001F0100081F0100081F010008DFF810D0E1
:1000F00000F0A8FC00480047D14B0008AFF3008097
:10010000A80500200648804706480047FEE7FEE7AE
:10011000FEE7FEE7FEE7FEE7FEE7FEE7FEE7FEE7B7
:100120002D210008ED0000082DE9F0410024061BF8
:10013000254671F1000605DA01240027D0EB0700FF
:1001400067EB0101161E73F1000605DA0027D2EBFA
:100150000702012567EB030300F066FB86460E46A7
:1001600017469C46AC4204D00025D0EB050E65EB4B
:10017000010624B10020D2EB000760EB030C7046AF
:1001800031463A466346BDE8F081D2B201E000F85C
:10019000012B491EFBD270470022F6E710B513462B
:1001A0000A4604461946FFF7F0FF204610BD30B559
:1001B00004460020034600E05B1C934203D2E05C4F
:1001C000CD5C401BF8D030BDF0B480EA0102D40F02
:1001D0004200B2EB410F02D20246084611464A00E5
:1001E00042D0C30DDDB2C1F3C752AD1A202D35DAAE
:1001F000C1F3160141F4000204B15242C5F12006D8
:1002000002FA06F12A411044B3EBD05F23D0C4B107
:10021000012DA0EBC35009DCF0BC4FF0004202EA14
:10022000C352DBB200F5000000F069BB400000F1F2
:10023000807000EBC350A0F1807040EAD17049009B
:1002400009E0490841EAC071A0EBC35000F5000085
:10025000400800EBC350F0BC00F048BB61420122F3
:1002600002EB4101001BF6E7F0BC704781F0004152
:10027000AAE780F00040A7E780EA010210B502F08B
:100280000043400022D04A001FD0010E01EB126152
:10029000C0F35600C2F3560240F4000042F40002DC
:1002A000A0FB022000047F39140400D0401C50EA57
:1002B000124001D44000491EC2B20C0604EBD0101B
:1002C000401C4008802A02D003E0002010BD20F02E
:1002D0000100002900DA0020184310BD30B480EA84
:1002E000010202F0004530F0004221F0004013D03E
:1002F00090B1C30DD40DC2F31601C0F31600E41A79
:1003000041F4000140F400027D34914201D3641CA9
:1003100000E04900002C02DA30BC002070474FF4A6
:1003200000000023914201D3891A034340084FEA99
:100330004101F7D151B1914202D14FF0004105E0A6
:1003400002D24FF0010101E06FF0010103EBC45054
:10035000284430BC00F0CABA2DE9FE4F804681EA3D
:100360000300C00F0C46009021F0004123F000452F
:10037000B8EB0200A94105D24046214690461C46F2
:100380000B46024623F00040104347D0270DC7F329
:100390000A00C3F30A510290401A019040286BDA18
:1003A000C3F3130040F4801B0098924620B1002351
:1003B000D2EB030A63EB0B0B01985946C0F14002E4
:1003C000504600F062FA06460D4650465946019ADC
:1003D00000F07AFA10EB08006141002487EA11521C
:1003E00084EAE7731A4340D0009A62B3019A012A63
:1003F0004FEA075215DC001B61EB02014FF000428F
:1004000002EA0752CDE90042001C41F58011324654
:100410002B4600F0B1FA03B0BDE8F08F404621460C
:10042000F9E7001B61EB0201001C41F58013001885
:100430005B412018A2F5001747EB030140EAD57095
:10044000B6196D4111E06D084FEA360645EAC075F0
:100450004FEA0752001B61EB0201001C41F58011BD
:1004600049084FEA30000019514132462B4603B08B
:10047000BDE8F04F00F071BA00980122400000235F
:10048000D0EB020263EBE073009821464FEAE07480
:10049000B8EB000061EB0401E9E783F000435BE7A0
:1004A00081F0004158E72DE9FE4F81EA030404F092
:1004B000004421F0004100944FF0000B23F0004372
:1004C00050EA01045ED052EA03045BD0C3F30A543D
:1004D000C1F30A552C44A4F2F3340194A0FB025456
:1004E000C1F3130141F48011C3F3130343F48013E8
:1004F00001FB024400FB034E840A970A44EA81543C
:1005000047EA8357A4FB076802958D0A05FB078518
:100510004FEA932C04FB0C542705029D4FEA065822
:1005200047EA1637B5EB08056EEB070C870E920EFF
:1005300047EA811742EA8312A7FB0201B6EB0B01DF
:1005400064EB00042B0D43EA0C335E1844EB1C50A3
:10055000DA465146E7FB0201C5F313044FEA0B33B9
:1005600043EA14534FEA0432019C43EA0603A4F120
:100570000C040294009CCDE900B400F0FDF903B036
:10058000BDE8F08F00200146F9E72DE9F04D81EA42
:10059000030404F0004B21F0004514464FF0000A1C
:1005A00023F0004150EA050220D054EA01021DD098
:1005B000C5F30A570246C5F31303C1F31300C1F391
:1005C0000A5640F4801543F48013A7EB0608101B6D
:1005D000D64608F2FD3873EB050002D308F1010896
:1005E00001E092185B41B8F1000F03DA00200146E8
:1005F000BDE8F08D00204FF48011064684460EE0E1
:10060000171B73EB050705D3121B63EB05030643AA
:100610004CEA010C49084FEA300092185B4150EA5D
:100620000107EDD152EA030012D082EA040083EA06
:100630000501084305D0101BAB4106D2012200235F
:1006400006E000224FF0004302E06FF00102531079
:100650001AEB06004CEB085110EB0A0041EB0B01C2
:10066000BDE8F04D00F079B9C10F80EAE0700844B0
:10067000CA079623002100F042B9962300221146B2
:1006800000F03DB90EB5C10F80EAE0700844CA071A
:10069000002140F233438DE80E000A460B4600F07D
:1006A0006BF903B000BD00F0004220F00040C10D26
:1006B000C0F3160040F400007F2901DA00207047E3
:1006C000962903DCC1F19601C84001E096398840C3
:1006D000002AF4D04042704720F00040C10DC0F322
:1006E000160040F400007F2901DA002070479629A7
:1006F00003DCC1F19601C8407047963988407047C5
:1007000070B5C1F30A5201F000450024C1F3130192
:1007100040F2FF3341F480119A4201DA002070BDAB
:1007200040F233439A42A2F2334203DC524200F0D9
:10073000BBF800E090402C43F1D0404270BDC1F3C3
:100740000A5210B5C1F3130140F2FF3341F4801196
:100750009A4201DA002010BD40F233439A42A2F2DD
:10076000334203DC524200F09FF810BD904010BDB0
:1007700000F0004230F000400AD0C10D01F5607178
:10078000C0F3160042EA0151C20840071143704706
:10079000002001467047000030B5041E71F10004CE
:1007A00004DB4FF00044404264EB0101141E73F17E
:1007B000000405DB1C464FF00043524263EB040388
:1007C0008B4208BF824230BD01F0004330B421F0BB
:1007D000004150EA010206D00A0DA2F56072C1F391
:1007E0001301002A02DC30BC00207047440F44EAA9
:1007F000C104C100E01830BC00EBC25000F076B874
:10080000002801DBC0F10040002901DBC1F10041FB
:1008100081427047002801DBC0F10040002901DB64
:10082000C1F10041884270472DE9F05F0546002084
:1008300092469B4688460646814640241BE0284651
:1008400041464746224600F02FF853465A46C01A02
:10085000914110D311461846224600F016F82D1A81
:1008600067EB01084F4622460120002100F00DF8F9
:1008700017EB00094E41201EA4F10104DFDC4846BD
:1008800031462A464346BDE8F09F202A04DB203A41
:1008900000FA02F1002070479140C2F1200320FAD3
:1008A00003F3194390407047202A04DB203A21FAD1
:1008B00002F00021704721FA02F3D040C2F1200279
:1008C0009140084319467047202A06DBCB17203A8F
:1008D00041FA02F043EAE07306E041FA02F3D04045
:1008E000C2F1200291400843194670470029A8BF71
:1008F0007047401C490008BF20F00100704710B449
:10090000B0FA80FC00FA0CF050EA010404BF10BCFD
:10091000704749B1CCF1200421FA04F411FA0CF12A
:1009200018BF012121430843A3EB0C01CB1D4FEA63
:1009300000614FEA102042BF002010BC704700EB5E
:10094000C35010440029A4BF10BC7047401C49008C
:1009500008BF20F0010010BC704710B5141E73F1E1
:10096000000408DA401C41F1000192185B411A436F
:1009700001D120F0010010BD2DE9F04D92469B46BB
:1009800011B1B1FA81F202E0B0FA80F22032904661
:10099000FFF77BFF04460F4640EA0A0041EA0B01DD
:1009A00053465A46084313D0114653EA010019D062
:1009B000C8F140025046FFF777FF05460E46504605
:1009C00059464246FFF761FF084305D0012004E085
:1009D00020463946BDE8F08D0020054346EAE07622
:1009E0002C4337430A986305E40AA0EB0800002271
:1009F000FD0A44EA47540A3002D500200146E9E7DF
:100A0000010510196941DDE9084500196941BDE892
:100A1000F04DA2E770B521F0004303430CD0C1F3C1
:100A20000A550024D5EB040564EB0403D617AD1A70
:100A3000B34102DB0020014670BD201841EB02519A
:100A400070BD0000064C074D06E0E06840F0010371
:100A500094E8070098471034AC42F6D3FFF74AFBFE
:100A600018770008387700082DE9F04D00231A4662
:100A70001B1A8A4103DB00200146BDE8F08DC1F35B
:100A80000A52C1F3130141F480154FF0000BD10756
:100A900002D100186D41521E0027044640F2FF119A
:100AA000384601EB620A3E468046024600204FF47B
:100AB0008011FFF7F9FEC2197141BB1846EB010026
:100AC000B4EB030C75EB000C04D3E41A65EB0005E2
:100AD00017460E46241908F101006D41804634285E
:100AE000E3DDF91946EB0600091BA84103D24FF0DC
:100AF000FF32134601E0002213461BEB070046EBD2
:100B00000A51BDE8F04DFFF728BF00BFFEE7704770
:100B100000B587B00121082001F0C6F901210220AB
:100B200001F0B2F90320ADF8180004208DF81B0085
:100B300006A91D4800F0C4F903A801F047FE4FF6CE
:100B4000FF70ADF810000020ADF80C00ADF80E00FD
:100B5000ADF812008DF8140003A9144801F0E4FD6B
:100B600000231A460321114801F06DFC684601F08C
:100B7000F5FC0A20ADF8080069460C4801F098FC25
:100B800001210A4801F03EFC01221146074801F00C
:100B9000EEFC0021054801F099FD0121034801F018
:100BA00037FC07B000BD0000000C0140000400400D
:100BB00000B587B00121082001F076F90121042059
:100BC00001F062F9C020ADF8180004208DF81B0078
:100BD00006A91D4800F074F903A801F0F7FD4FF6CF
:100BE000FF70ADF810000020ADF80C00ADF80E005D
:100BF000ADF812008DF8140003A9144801F094FD1B
:100C000000231A460321114801F01DFC684601F03B
:100C1000A5FC0A20ADF8080069460C4801F048FC24
:100C200001210A4801F0EEFB01221146074801F0BC
:100C30009EFC0021054801F049FD0121034801F017
:100C4000E7FB07B000BD0000000C014000080040B9
:100C500070B5202000F0A2F800284ED000BF294A2D
:100C600029492A4804F024F80028F8D1284A2949BB
:100C7000294800F085FA042001F090F9274908601E
:100C8000032001F08BF9404225490860254802689D
:100C9000084601682148006801F0BEFE224908604C
:100CA0001C48B0F90000FFF7DFFC05461E4800684D
:100CB000FFF7DAFC06461D4801683046FFF784FA64
:100CC00004462A4610480168204601F039FF1849B9
:100CD000086008460068174908601548006816490A
:100CE000086000F0C7F90848006801F0EFF9124801
:100CF00001681048006800F0E9F9202000F01EF8B3
:100D000070BD00007C0000207800002074000020EE
:100D10008400002082000020800000209C00002031
:100D2000A000002070000020980000206C0000202F
:100D3000940000208C0000209000002001490860F1
:100D400070470000140401400EB500F085F8012141
:100D5000042001F0A9F82020ADF8080004208DF847
:100D60000B0002A90C4800F0ABF80121084601F085
:100D70009BF80521002000F083F82020009000203F
:100D80008DF8040008208DF8050001208DF806007C
:100D9000684600F017F80EBD00080140014600202B
:100DA0000022074B1B6803EA0102054B14331B6842
:100DB0000B4013B10AB1012000E000207047000091
:100DC00000040140002123498279002A3AD00A46D2
:100DD000126803689A430B461A600A1D126803687A
:100DE0009A430B1D1A60027911440A6803681A437A
:100DF0000A60184A0832126803689A43154B083390
:100E00001A601A1D126803689A43124B0C331A6059
:100E10004279102A0ED11A1F126803681A430D4B2B
:100E200008331A601A1D126803681A43094B0C3301
:100E30001A600DE00749427911440A6803681A43B1
:100E40000A6005E0027911440A6803689A430A605F
:100E5000704700000004014008B54FF4A06000F0A6
:100E60006FFC17208DF8000000208DF80100012094
:100E70008DF802008DF80300684600F029FC08BDDB
:100E800030B500228B071C0F0F2303FA04F20B4B23
:100E90008C1053F824309343084C8D1044F82530BF
:100EA00023468C1053F824308C07240F00FA04F4E6
:100EB0002343024C8D1044F8253030BD080001401A
:100EC0002DE9F041024600250026002000230024E1
:100ED000002791F803C00CF00F0591F803C00CF047
:100EE000100CBCF1000F03D091F802C04CEA0505CC
:100EF00091F800C0BCF1000F31D0146800202BE045
:100F00004FF0010C0CFA00F3B1F800C00CEA030634
:100F10009E4220D183004FF00F0C0CFA03F7BC4324
:100F200005FA03FC4CEA040491F803C0BCF1280F55
:100F300006D14FF0010C0CFA00FCC2F814C00AE014
:100F400091F803C0BCF1480F05D14FF0010C0CFA29
:100F500000FCC2F810C0401C0828D1D31460B1F8BE
:100F600000C0BCF1FF0F34DD546800202EE000F11A
:100F7000080C4FF0010808FA0CF3B1F800C00CEAB5
:100F800003069E4221D183004FF00F0C0CFA03F7A9
:100F9000BC4305FA03FC4CEA040491F803C0BCF11D
:100FA000280F05D100F1080C08FA0CF8C2F81480DB
:100FB00091F803C0BCF1480F07D100F1080C4FF0C5
:100FC000010808FA0CF8C2F81080401C0828CED39B
:100FD0005460BDE8F0810000F0B50A46002300240B
:100FE0000021002500F00046B6F1004F02D11D4E51
:100FF000F16901E01B4E7168C0F3034583B200F450
:101000004016B6F5401F08D121F07061154E766884
:1010100026F07066134F7E6012E000F48016B6F57D
:10102000801F06D1032606FA05F4A14341F0706142
:1010300006E0460D360103FA06F6B14341F0706151
:1010400022B1460D360103FA06F6314300F00046A0
:10105000B6F1004F02D1034EF16101E0014E716023
:10106000F0BD000000000140416170470161704720
:1010700000BFFEE7124800681249884203DA0846BA
:101080000F49086008E00E48006841F65831884270
:1010900002DD08460A4908600B4800680949884291
:1010A00003DA08460849086008E00748006841F686
:1010B0005831884202DD0846034908607047000045
:1010C0008C000020A8E4FFFF9000002070B50546CA
:1010D0000C46002D07DD0120184908600020184942
:1010E000C1F8BC0106E00020144908600120144941
:1010F000C1F8BC01284601F0F1FD86B23146114825
:1011000001F0DFFA002C08DD00200C4908390860E6
:1011100001200B49C1F8B40107E001200749083953
:10112000086000200649C1F8B401204601F0D6FD50
:1011300086B23146034801F0C6FA70BDB88121423B
:1011400000802142002C014008B50121082000F058
:10115000ABFE4FF47040ADF8000010208DF8030096
:1011600003208DF8020069460448FFF7A9FE4FF4FA
:1011700070410248FFF778FF08BD0000000C0140F5
:101180002DE9FC4104460D4616466B4606224321D6
:10119000682000F0C3F90746BFB99DF801009DF82B
:1011A000001040EA012000B220809DF803009DF865
:1011B000021040EA012000B228809DF805009DF849
:1011C000041040EA012000B230803846BDE8FC81BE
:1011D00010B500200E4908600E48006820F47040E9
:1011E0000C4908600846006840F440500860002040
:1011F0000949C1F8AC0100F011F801200449086068
:1012000000F00CF800200449C1F8A80110BD00004E
:10121000A8812142040C01400080214210B5022027
:1012200002F074FB10BD000008B50121082000F099
:101230003BFE4FF44060ADF8000010208DF8030035
:1012400003208DF8020069460448FFF739FE4FF489
:1012500040610248FFF70AFF08BD0000000C014092
:1012600010B500200E4908600E48006820F4704058
:101270000C4908600846006840F4405008600120AE
:101280000949C1F8AC01FFF7C9FF01200449086012
:10129000FFF7C4FF00200449C1F8A80110BD0000F9
:1012A000A8812142040C01400080214270B505460E
:1012B00000241648006820F470401449086008466D
:1012C000006840F400400860002614E00020104947
:1012D0000860FFF7A3FF01200E49C1F8A8016006CE
:1012E000040E0B487C38006808B1601CC4B2FFF7DC
:1012F00095FF701CC6B2082EE8DB15B9FFF7B0FFEA
:1013000001E0FFF765FF204670BD0000040C0140BE
:10131000A88121420080214270B50446124800682D
:1013200020F47040104908600846006840F44050BE
:10133000086000200D490860002512E0E0090B4913
:10134000091D08606006040E01200949C1F8A801C2
:10135000FFF764FF002005490860FFF75FFF681C86
:10136000C5B2082DEADB70BD040C0140A881214202
:101370000080214210B50E48006820F470400C49EE
:1013800008600846006840F44050086001200949A0
:1013900008600949C1F8A801FFF740FF002005498E
:1013A0000860FFF73BFF00200349C1F8A80110BD0A
:1013B000040C0140AC8121420080214210B50E484E
:1013C000006820F470400C4908600846006840F44A
:1013D000405008600020094908600949C1F8AC0183
:1013E000FFF71CFF0120054908600549C1F8AC0161
:1013F000FFF714FF10BD0000040C0140A88121423A
:101400000080214210B500241448006820F4704088
:10141000124908600846006840F400400860012056
:101420000F490860FFF7FAFE01200E49C1F8A80134
:10143000FFF7F4FE07E0601CC4B2FA2C03DDFFF7EF
:10144000BDFF012010BD0648803800680028F2D199
:101450000349091F086000BFF4E70000040C0140C5
:10146000AC8121420080214210B5FFF7DDFE8021D2
:101470006B2000F0D7F8642002F022FA00216B20E4
:1014800000F0D0F8032000F08BF8002000F080F886
:10149000642000F0AAF80021382000F0C3F80021F1
:1014A0006A2000F0BFF80021232000F0BBF8802163
:1014B000372000F0B7F8752000F013F80446682CC8
:1014C0000BD101216B2000F0ADF800216C2000F061
:1014D000A9F8642000F089F801E0012010BD002087
:1014E000FCE770B50446FFF745FFD020FFF714FF77
:1014F000FFF788FF2046FFF70FFFFFF783FFFFF797
:1015000039FFD120FFF708FFFFF77CFF0020FFF72E
:10151000CDFE0546FFF752FF284670BD2DE9F0418C
:1015200006460F4614461D46FFF724FF002141EAF8
:101530004601C8B2FFF7F0FEFFF764FF20B1FFF7E6
:101540003DFF0120BDE8F0813846FFF7E5FEFFF7DB
:1015500059FFFFF70FFF012101EB4601C8B2FFF76A
:10156000DBFEFFF74FFF0DE0012C04D10020FFF759
:101570009DFE287003E00120FFF798FE2870601E92
:10158000C4B26D1C002CEFD1FFF718FF0020D9E783
:1015900010B50446E006010E1C2000F043F810BD13
:1015A00010B50446E006010E1B2000F03BF810BD0C
:1015B00070B504460025BC2C01DB012510E0622C2F
:1015C00001DB02250CE02A2C01DB032508E0142CAA
:1015D00001DB042504E00A2C01DB052500E00625DB
:1015E00029461A2000F01EF870BD70B50446B4F507
:1015F0007A7F01DD4FF47A74042C00DA04244FF46E
:101600007A7090FBF4F0401EC5B22946192000F014
:1016100009F80546264604EBD671C1F34F00FFF7E3
:10162000C7FF70BD70B505460C46FFF7A3FED0207E
:10163000FFF772FEFFF7E6FE18B1FFF7BFFE0120CD
:1016400070BD2846FFF768FEFFF7DCFE2046FFF777
:1016500063FEFFF7D7FE18B1FFF7B0FE0120EFE7FA
:10166000FFF7ACFE0020EBE72DE9F04105460E4602
:1016700017469846FFF77EFE002141EA4501C8B2B1
:10168000FFF74AFEFFF7BEFE20B1FFF797FE0120ED
:10169000BDE8F0813046FFF73FFEFFF7B3FE0024C0
:1016A0000CE018F80400FFF737FEFFF7ABFE18B1A7
:1016B000FFF784FE0120EBE7601CC4B2BC42F0DB04
:1016C000FFF77CFE0020E3E700BFFEE77047000065
:1016D00070B5002100230F22C47804B3154C246890
:1016E00004F4E064C4F5E064210AC1F10403CA40D3
:1016F000447804FA03F184781440214309010E4C24
:101700000678A155047804F01F050124AC40057843
:101710006D11AD0005F1E025C5F8004109E0047840
:1017200004F01F050124AC40044D0678761145F8FD
:10173000264070BD0CED00E000E400E080E100E038
:1017400002490143024A1160704700000000FA0597
:101750000CED00E070B5002418E004F1B0000021A9
:1017600000F0B5FA0021084600F0B1FA002110207F
:1017700000F0ADFA002505E00121002000F0A7FAF5
:10178000681CC5B2802DF7DB601CC4B2082CE4DBFA
:1017900070BD00002DE9FF5F86B014461D464FF076
:1017A000010A00200390049005904FF001090026E3
:1017B00000BF83460022134620462946FEF7ECFF71
:1017C00009D285F00040CDE9004020460199FEF79E
:1017D00097FF064604E020462946FEF791FF06469D
:1017E0003046FEF74FFF22462B46CDE90001FEF7BB
:1017F00057FE074688460022554B38464146FEF7BD
:1018000052FECDE90001FEF79AFF834607E009EB9F
:1018100089004FEA40090AF1010000F0FF0A0A209E
:1018200096FBF0F090FBF9F00028F0D142F2107036
:1018300096FBF0F00A2190FBF1F201FB1200C0B21E
:101840008DF80C004FF47A7096FBF0F090FBF1F2FB
:1018500001FB1200C0B28DF80D00642096FBF0F081
:1018600090FBF1F201FB1200C0B28DF80E000A20CD
:1018700096FBF0F090FBF1F201FB1200C0B28DF884
:101880000F000A2096FBF0F100FB1160C0B28DF84A
:1018900010002E208DF811004FF47A70BBFBF0F091
:1018A0000A21B0FBF1F201FB12008DF81200642056
:1018B000BBFBF0F0B0FBF1F201FB12008DF813005E
:1018C0000A20BBFBF0F0B0FBF1F201FB12008DF837
:1018D00014000A20BBFBF0F100FB11B08DF81500DD
:1018E00000211498801D03AA1154894608E003A81A
:1018F00010F80900303003A901F8090009F10109C5
:10190000B9F10A0FF3DB0022134620462946FEF701
:1019100043FF08D20AF1010000F0FF0A2D20CAF1AE
:10192000050103AA50542E208DF8110000211498AF
:10193000801D03AA1154CAF1050003A942180C2303
:10194000DDE9061000F0A8F90AB0BDE8F09F00003C
:101950000088C34010B54FF480710948FFF786FB3B
:101960004FF400710648FFF781FB4FF40071044803
:10197000FFF77AFB4FF480710148FFF775FB10BD4C
:10198000000C014010B54FF480710748FFF76EFB63
:101990004FF400710448FFF767FB4FF400710248F1
:1019A000FFF764FB10BD0000000C014010B54FF4C0
:1019B00080710448FFF75AFB4FF480710148FFF72C
:1019C00053FB10BD000C014008B50121092000F0B7
:1019D0006BFA01214348FFF7FFFA4FF44070ADF86E
:1019E000000010208DF8030003208DF802006946E6
:1019F0003D48FFF765FA4FF440713B48FFF736FB6F
:101A00004FF4487001F05CFF0021AE2000F05FF958
:101A10000021084600F05BF90021102000F057F982
:101A20000021402000F053F90021B02000F04FF9D0
:101A30000021812000F04BF90021FF2000F047F940
:101A40000021A12000F043F90021A62000F03FF979
:101A50000021A82000F03BF900213F2000F037F9D9
:101A60000021C82000F033F90021D32000F02FF925
:101A70000021084600F02BF90021D52000F027F9BD
:101A80000021802000F023F90021D82000F01FF968
:101A90000021052000F01BF90021D92000F017F9E2
:101AA0000021F12000F013F90021DA2000F00FF9F5
:101AB0000021122000F00BF90021DB2000F007F9D3
:101AC0000021302000F003F900218D2000F0FFF804
:101AD0000021142000F0FBF80021AF2000F0F7F8FF
:101AE00008BD000000023000000C01402DE9F04765
:101AF0000546894616463446002C22DA64426420A4
:101B000094FBF0F100FB11400A2190FBF1F0C7B209
:101B10000A2094FBF0F100FB114000F0FF080D22B9
:101B20004946284600F03AF9691CC8B23A46494687
:101B300000F02AF8A91CC8B24246494600F024F831
:101B400020E0642094FBF0F100FB11400A2190FB9F
:101B5000F1F0C7B20A2094FBF0F100FB114000F055
:101B6000FF080B224946284600F018F9691CC8B244
:101B70003A46494600F008F8A91CC8B24246494610
:101B800000F002F8BDE8F0872DE9F04105460F4668
:101B9000164600BF05EB45014906080E394600F020
:101BA00015F800240BE006F1100101EB4101064A93
:101BB00002EB4101085D012100F089F8641C062C4C
:101BC000F1DBBDE8F0810000BA6D000870B5044695
:101BD0000D4605F1B000002100F079F8102141EA2E
:101BE0001410002100F073F804F00F00002100F041
:101BF0006EF870BD2DE9F04707460E4690469946AF
:101C000000250024A8F12000C5B27F2F02DD0027A7
:101C1000B01CC6B2B9F1100F24D131463846FFF7D7
:101C2000D5FF002408E004EB0511194A505C01219E
:101C300000F04DF8601CC4B2082CF4DB701CC1B27B
:101C40003846FFF7C3FF002409E004EB0511083113
:101C50000F4A505C012100F03AF8601CC4B2082C15
:101C6000F3DB12E031463846FFF7B0FF00240AE00C
:101C700005EB4501074A02EB4101085D012100F037
:101C800026F8601CC4B2062CF2DBBDE8F087000029
:101C9000E26F0008BA6D00082DE9F04105460E46D6
:101CA00014461F460EE022783B4631462846FFF791
:101CB000A1FF05F10800C5B2782D02DD0025B01C9A
:101CC000C6B2641C20780028EDD1BDE8F08170B563
:101CD00004460D461DB1E0B200F04AF802E0E0B261
:101CE00000F030F870BD00002DE9F04105462C46AB
:101CF0004FF480711248FFF7B7F900261CE0274621
:101D000007F08007802F04D1B9000D48FFF7AEF926
:101D100004E04FF400710A48FFF7A6F96006040ECC
:101D20004FF480710648FFF7A1F94FF48071044821
:101D3000FFF79AF9701CC6B2082EE0DBBDE8F0810F
:101D4000000C014010B50446FFF704FE7820FFF7B1
:101D5000CBFFFFF72BFE0020FFF7C6FFFFF726FEA5
:101D60002046FFF7C1FFFFF721FEFFF70BFE10BD76
:101D700010B50446FFF7EEFD7820FFF7B5FFFFF73B
:101D800015FE4020FFF7B0FFFFF710FE2046FFF7DB
:101D9000ABFFFFF70BFEFFF7F5FD10BD2DE9F0419E
:101DA00005460F46164600BF05EB45014906080EDD
:101DB0003946FFF70BFF002409E006EB4601064A0F
:101DC00002EB4101085D0121FFF781FF641C062C35
:101DD000F3DBBDE8F0810000BA6D000830B589B0D2
:101DE00005460C46012140F6040000F05DF84FF472
:101DF0001060ADF8200018208DF8230003208DF826
:101E0000220008A91D48FFF75BF8ADF81850ADF89F
:101E100014400020ADF81A00ADF8160005A91848C6
:101E200000F082FC6020ADF804000120ADF806004F
:101E30000020ADF80800ADF80A00ADF80C004FF432
:101E40008070ADF8100001A90D4800F099FB01A9C0
:101E50000B4800F0EBFB0821094800F0DDFB0821EE
:101E6000074800F021FC0121054800F0D1FA0121CA
:101E7000034800F0D9FA09B030BD00000008014065
:101E8000002C01407047000029B1064AD269024384
:101E9000044BDA6104E0034AD2698243014BDA6100
:101EA000704700000010024029B1064A92690243BF
:101EB000044B9A6104E0034A92698243014B9A61A0
:101EC000704700000010024030B5002100220024BD
:101ED00000232D4D6D6805F00C0121B1042905D0BA
:101EE000082923D105E0294D056022E0274D056032
:101EF0001FE0254D6D6805F47012234D6D6805F4E3
:101F00008034022505EB92421CB9214D55430560F2
:101F10000BE01D4D6D6805F400351DB11C4D55439A
:101F2000056002E0194D5543056002E0174D05605C
:101F300000BF00BF144D6D6805F0F0010909154D93
:101F40006B5C0568DD4045600F4D6D6805F4E06130
:101F5000090A104D6B5C4568DD4085600A4D6D686F
:101F600005F46051C90A0B4D6B5C4568DD40C560E6
:101F7000054D6D6805F44041890B074D6B5CC568E4
:101F8000B5FBF3F5056130BD0010024000127A0088
:101F900000093D00140000202400002070B5054613
:101FA000032D0AD0042D11D10B4800F06DFA04B2B4
:101FB0000021094800F08AFB0AE0084800F064FAB2
:101FC00004B20021054800F081FB01E0002400BFBD
:101FD00000BF204670BD0000000800400004004023
:101FE000704710B500F002F810BD00000CB50020DD
:101FF000019000903348006840F480303149086017
:1020000000BF3048006800F4003000900198401C88
:102010000190009818B90198B0F5A06FF1D1294846
:10202000006800F4003010B10120009001E00020B1
:1020300000900098012843D12348006840F0100028
:10204000214908600846006820F00300086008463F
:10205000006840F0020008601A484068194948606A
:102060000846406848600846406840F48060486020
:102070000846406820F47C1048600846406840F4F8
:10208000E81048600846006840F08070086000BFB3
:102090000C48006800F000700028F9D0094840683A
:1020A00020F00300074948600846406840F00200FD
:1020B000486000BF0348406800F00C000828F9D1D0
:1020C0000CBD0000001002400020024010B5044684
:1020D00007492046FEF794FB04D306492046FEF745
:1020E00099FB04D20020044908600449086010BD2F
:1020F000000020C2000020428C0000209000002040
:10210000042808D14FF0E021096941F004014FF0A3
:10211000E022116107E04FF0E021096921F004019C
:102120004FF0E022116170477047000010B513486E
:10213000006840F0010011490860084640681049F5
:1021400008400E494860084600680E4908400B499F
:1021500008600846006820F480200860084640684F
:1021600020F4FE0048604FF41F008860FFF739FF3D
:102170004FF000600449086010BD000000100240EC
:102180000000FFF8FFFFF6FE08ED00E0F0B50C469A
:10219000154600220021068C4FF6FE773E4006844D
:1021A000028B018C4FF60C7632407E1C06EA031639
:1021B0002E433243104EB0420ED0104EB0420BD0E0
:1021C000B0F1804F08D00E4EB04205D00D4EB04257
:1021D00002D00D4EB04206D14FF6FD76314044F0AC
:1021E0000106314305E04FF6F576314044F0010633
:1021F000314302830184F0BD002C014000340140D2
:102200000004004000080040000C0040F0B50C46FF
:102210001546002200210026078C4FF6EF7C07EAC6
:102220000C070784028B018C4FF6FF7707EA041630
:1022300040F6FF473A404FF6FF7707EA03373A4345
:102240004FF6FF7707EA05273A43114FB8420ED001
:10225000104FB8420BD0B0F1804F08D00E4FB842AB
:1022600005D00E4FB84202D00D4FB84206D14FF6FE
:10227000DF77394046F01007394305E04FF65F77C6
:10228000394044F01007394302830184F0BD000057
:10229000002C0140003401400004004000080040D0
:1022A000000C0040F0B50C46154600220021002627
:1022B000078C4FF6FF6C07EA0C070784828B018CB2
:1022C0004FF6FF7707EA04264FF60C773A404FF6B1
:1022D000FF7707EA03172F433A43114FB8420ED056
:1022E000104FB8420BD0B0F1804F08D00E4FB8421B
:1022F00005D00E4FB84202D00D4FB84206D14FF66E
:10230000FF57394046F48077394305E04FF2FF57D5
:10231000394044F48077394382830184F0BD000062
:10232000002C01400034014000040040000800403F
:10233000000C0040F0B50C46154600220021002696
:10234000078C4EF6FF7C07EA0C070784828B018C12
:102350004FF6FF7707EA043640F6FF473A404FF65C
:10236000FF7707EA05273A434FF6FF7707EA033777
:102370003A43114FB8420ED0104FB8420BD0B0F1D3
:10238000804F08D00E4FB84205D00E4FB84202D051
:102390000D4FB84206D14DF6FF77394046F48057CD
:1023A000394305E047F6FF57394044F48057394335
:1023B00082830184F0BD0000002C01400034014004
:1023C0000004004000080040000C004010B501214E
:1023D000044800F05CF818B10121024800F015F83B
:1023E00010BD00000004004010B50121044800F0B9
:1023F0004EF818B10121024800F007F810BD0000A6
:1024000000080040CA4302827047CA4302827047F4
:1024100021B1028842F00102028004E002884FF6F6
:10242000FE731A400280704731B1B0F8442042F484
:102430000042A0F8442005E0B0F84420C2F30E02A8
:10244000A0F844207047F0B50C4615461E46002102
:10245000002200230189028B038C4FF6F877394064
:1024600021434FF6FC473A4040F201173A434FF6FA
:10247000DD773B404FF6FF7707EA06172F433B43D4
:10248000018102830384F0BD0146888C704730B51A
:102490000246002000230024158A05EA01039589DD
:1024A00005EA010413B10CB1012000E0002030BDA9
:1024B00070B505460C46244885420ED02348854217
:1024C0000BD0B5F1804F08D02148854205D0214876
:1024D000854202D02048854200D100E000BF20881C
:1024E00050B92389A28861882846FFF74FFEE1880A
:1024F000284600F0EDF825E0208804280AD1238939
:10250000A28861882846FFF781FEE188284600F00E
:10251000E8F817E0208808280AD12389A288618872
:102520002846FFF7BFFEE188284600F0E7F809E0FB
:102530002389A28861882846FFF7FCFEE1882846A7
:1025400000F0E5F870BD0000002C014000340140AF
:102550000004004000080040000C00400021018001
:102560004180012181800021C180018170471AB121
:1025700083890B43838102E083898B438381704786
:1025800070B5002400220023058C4FF6FE763540FE
:102590000584028C8388048B4FF68F752C40B51E02
:1025A0002C400D882C43751E2A400D892A434D88E6
:1025B0002A43144DA8420BD0134DA84208D0134D06
:1025C000A84205D0124DA84202D0124DA84213D104
:1025D0004FF6F7752A404D892A434FF6FB752A407E
:1025E0008D882A434FF6FF652B404FF6FF552B4051
:1025F0008D892B43CD892B4383800483CD888586A9
:10260000028470BD002C01400034014000400140B4
:1026100000440140004801400A460021018B4FF66A
:10262000F7731940114301837047000070B5002211
:1026300000230024058C4EF6FF7635400584038C7C
:102640008488828B48F6FF752A404FF6FF452A4062
:102650000D884FF6FF7606EA05252A434DF6FF75ED
:102660002B400D8906EA05352B434D8806EA0535D2
:102670002B430B4DA84202D00A4DA84208D14BF67D
:10268000FF752C408D894FF6FF7606EA85152C43A1
:1026900084808283CD88A0F84050038470BD000000
:1026A000002C0140003401400A460021818B4FF28A
:1026B000FF7319404FF6FF7303EA02231943818326
:1026C000704781867047A0F840107047818470473A
:1026D000028B4FF6F3731A400283028B0A43028384
:1026E0007047028B4FF2FF331A400283028B4FF682
:1026F000FF7303EA01231A4302837047828B4FF66C
:10270000F3731A408283828B0A4382837047828BE1
:102710004FF2FF331A408283828B4FF6FF7303EA36
:1027200001231A4382837047002202881D4B98427E
:102730000ED01D4B98420BD0B0F1804F08D01B4BF0
:10274000984205D01A4B984202D01A4B984204D1B5
:102750004FF68F731A404B881A43174B984207D095
:10276000164B984204D04FF6FF431A40CB881A43C9
:1027700002808B8883850B8803850A4B98420BD097
:10278000094B984208D00E4B984205D00D4B984209
:1027900002D00D4B984201D10B7A0386012383822C
:1027A00070470000002C014000340140000400404C
:1027B00000080040000C00400010004000140040E1
:1027C0000040014000440140004801404FF6FF71C5
:1027D000818000210180C18041800172704700002A
:1027E00010B540F225511F4800F04EF830B31D4897
:1027F00000F006F9C4B221461A4800F006F91A485A
:10280000008800F40040C8B91748008800F48040F0
:1028100060B10A2C03D000201349088020E0124840
:10282000008840F400401049088019E00D2C06D1C2
:102830000D48008840F480400B49088010E00A48A9
:102840000088C0F30D0009490C5407480088401C5B
:102850000549088008460088C72801DD0020088057
:1028600010BD00000044004068000020DC00002093
:1028700021B1828942F40052828104E082894DF6BE
:10288000FF731A408281704770B50246002400230E
:102890000025002040F66A16B14200D100BFC1F306
:1028A000421501F01F03012606FA03F3012D02D1A0
:1028B0009689334006E0022D02D1168A334001E0AA
:1028C000968A33400C12012606FA04F41688344026
:1028D00013B10CB1012000E0002070BDF0B503463B
:1028E000002400260025002040F66A17B94200D1D6
:1028F00000BF1846C1F3421401F01F06012707FA72
:1029000006F5012C01D10C3004E0022C01D110306D
:1029100000E014301AB107682F43076002E007682F
:10292000AF430760F0BD00002DE9F04786B00546D3
:102930000E460024A24600BFA1460027B08900B180
:1029400000BF2F462C8A4CF6FF700440F0880443E9
:102950002C82AC894EF6F3100440B08831890843CC
:10296000718908430443AC81AC8A4FF6FF400440B0
:10297000B0890443AC8201A8FFF7A6FA1F4887423A
:1029800002D1DDF810A001E0DDF80CA0A88900F468
:10299000004040B10AEBCA0000EB0A103168490060
:1029A000B0FBF1F807E00AEBCA0000EB0A1031684F
:1029B0008900B0FBF1F86420B8FBF0F004012009B5
:1029C000642101FB1089A88900F4004040B1322045
:1029D00000EBC900B0FBF1F000F00700044308E091
:1029E000322000EB09106421B0FBF1F000F00F0081
:1029F00004432C8106B0BDE8F08700000038014098
:102A000001468888C0F308007047C1F3080282803D
:102A1000704700BFFEE700002DE9FF4704460D4662
:102A200016466019801B3849086038480068FDF771
:102A300029FE0746364A374BFDF735FD81468A4663
:102A400031480068FDF71EFE0746314A324BFDF75C
:102A50002AFD4A465346CDE90001FDF77DFCCDE94C
:102A60000201FDF74DFE2D49086008460068274920
:102A700008602B480068294909680844284908600B
:102A80000846006842F21071884202DD0846244977
:102A90000860234800682349884202DA0846204932
:102AA00008601F480068FDF7DFFD82461E48016888
:102AB0005046FDF7E1FB804618480068FDF7D4FD5D
:102AC00082461A4801685046FDF7D6FB81464146CA
:102AD000FDF77AFB0746FDF7E6FD15490860154945
:102AE00015480068FDF78CFE05D3144912480068AC
:102AF000FDF790FE02D20020094908600C480068EA
:102B000004B0BDE8F0870000B8000020C400002039
:102B10009A9999999999E93F9999C93FC0000020DC
:102B2000BC000020F0D8FFFFB0000020AC00002067
:102B3000B4000020000020C27800002000002042E5
:102B40002DE9F84F05460E46144631462846FDF756
:102B500090FB8146FDF7A7FD804621460C480068A2
:102B6000FDF78AFB00904046FDF77EFD834609484D
:102B700001685846FDF780FB82460099FDF724FB6B
:102B80008146FDF790FD07463846BDE8F88F000006
:102B9000A8000020A40000200FB4054B10B503A925
:102BA000044A029800F0A2F810BC5DF814FB000083
:102BB0000D45000864000020490050EAC12018BFFC
:102BC00004204A0D18BF40F0010040F2FF72B2EB42
:102BD000515F08BF40F00200012808BF0520704780
:102BE0002DE9F0414F1E00EBC7010446D1E9000179
:102BF00015461E4637F006020DD02A463346FDF72D
:102C000052FC7F1E04EBC703D3E90023FDF7A4FBAE
:102C100037F00602F1D1022F25D0042F13D0062F52
:102C200018BFBDE8F0812A463346FDF73CFCD4E9E5
:102C30000A23FDF791FB2A463346FDF734FCD4E91D
:102C40000823FDF789FB2A463346FDF72CFCD4E91F
:102C50000623FDF781FB2A463346FDF724FCD4E921
:102C60000423FDF779FB2A463346FDF71CFCD4E923
:102C70000223FDF771FB2A463346FDF714FCD4E925
:102C80000023BDE8F041FDF767BB0122FDF7C2BE9E
:102C9000FDF762BB0022134610461146FDF775BCD6
:102CA000024A00201107FDF7B5BE000001FDFFFF3D
:102CB00002E008C8121F08C1002AFAD17047704705
:102CC000002001E001C1121F002AFBD17047000063
:102CD0000149086070470000C80000200146002933
:102CE00001DA484200E00846704700002DE9FF4F36
:102CF0008DB00F460546002606E025280BD0DDE9FD
:102D00000F1290476D1C761C28780028F5D111B061
:102D10003046BDE8F08F0024A246A1460122E949D1
:102D200000E0044315F8013F203B02FA03F008429B
:102D3000F7D128782A2810D06FF02F022878A0F138
:102D40003001092914D80AEB8A0102EB410144F051
:102D5000020400EB010A6D1CF0E701CF5FEA000AF4
:102D600003D544F40054CAF1000A44F002046D1C77
:102D700028782E2817D115F8010F44F004042A28CA
:102D80000ED06FF02F022878A0F1300109290AD85F
:102D900009EB890102EB410100EB01096D1CF2E72F
:102DA00057F8049B6D1C28786C280FD006DC4C2843
:102DB00017D068280DD06A2814D104E0742810D0E8
:102DC0007A280FD10DE044F400140AE044F4801492
:102DD00001E044F440146978814202D104F5801482
:102DE0006D1C6D1C28786E281ED00CDC632830D03A
:102DF00004DC00288BD0582811D19FE0642867D0CC
:102E000069280CD164E073282DD004DC6F2872D0BF
:102E1000702804D194E075286ED078286DD0DDE953
:102E20000F129047761C4BE1C4F30250022806D0E3
:102E3000032809D0042801CF09D0066040E101CF62
:102E4000F117C0E900613BE101CF068038E106706F
:102E500036E117F8040B8DF8000000208DF8010012
:102E6000EB46012003E057F804BB4FF0FF30610749
:102E70004FF0000102D40DE008F1010188464945F8
:102E80000FDA8045F8DB1BF808100029F4D108E0C0
:102E900008F1010188468142FADB1BF8081000297D
:102EA000F6D1DDE90F23AAEB08008146214600F0A8
:102EB00031F9304400EB080604E0DDE90F121BF89D
:102EC000010B9047B8F10108F7D221464846F2E0DD
:102ED0000A21C4F302524FF0000B0891022A04D0D9
:102EE00001CFC117032A09D00AE0FF1D27F0070709
:102EF000F7E8020108E02CE01EE01FE000B2C11775
:102F0000042A01D140B2C117021E71F1000206DA93
:102F10000023D0EB030063EB01012D2202E0220528
:102F200004D52B228DF82420012203E0E20701D0F2
:102F30002022F7E7904653E00A210BE0102109E038
:102F400010214FF0000B44F004044FF008090891E1
:102F500003E008214FF0000B0891C4F30252022A4B
:102F600004D001CF0021032A06D006E0FF1D27F080
:102F70000707F7E8020103E080B2042A00D1C0B2DB
:102F80004FF0000822072BD52A78702A07D0DDF8E9
:102F900020C08CF0100C5CEA0B0C05D00EE0402237
:102FA0008DF82420012208E050EA010306D03023E6
:102FB0008DF824308DF8252002229046089B83F05E
:102FC000080353EA0B030BD150EA010201D1620757
:102FD00006D530228DF824204FF00108A9F101090F
:102FE0002A78582A04D038A20B9208AA0A920BE039
:102FF0003AA2F9E75B46089AFDF716FC0B9B9B5C2F
:103000000A9A521E0A92137050EA0102F2D10A98EB
:10301000ADEB000000F1200B600702D524F48034F2
:1030200001E04FF00109D94502DDA9EB0B0000E0FA
:10303000002000EB0B0141440890AAEB010AE003D9
:1030400006D4DDE90F232146504600F063F806441C
:103050004FF0000908E009A911F80900DDE90F1295
:10306000904709F10109761CC145F4DBE0030CD55A
:10307000DDE90F232146504600F04CF8064404E0F9
:10308000DDE90F1230209047761C0899481E089001
:103090000029F5DC08E00A980A990078491C0A9191
:1030A000DDE90F129047761CBBF10001ABF1010B7B
:1030B000F1DC21465046DDE90F2300F019F8064403
:1030C0006D1C21E6092801003031323334353637A2
:1030D0003839616263646566000000003031323364
:1030E0003435363738394142434445460000000004
:1030F0002DE9F041044600251E461746880404D4F5
:1031000005E039462020B0476D1C641EF9D52846DD
:10311000BDE8F0812DE9F041044600251E469046A9
:10312000C80301D5302700E02027880404D505E036
:1031300041463846B0476D1C641EF9D52846BDE8A7
:10314000F08100002DE9FE4F06460F460025684637
:1031500001F0EAF9002442E056F8240057F8241060
:10316000A0EB010ABAF1000F01DB514601E0CAF100
:1031700000010846FDF778FA83464FF08F41FDF7CE
:10318000ADF880465DF824000021FDF739FB16D02C
:103190005DF824104046FDF7A1F882464FF07E51BD
:1031A000FDF764F8814629F0004A0F48416A50460D
:1031B000FDF730FB12D20120A04005430EE00A4883
:1031C000C1694046FDF71CFB05D30748016A40462C
:1031D000FDF720FB02D20120A0400543641C032C14
:1031E000BADB2846BDE8FE8F9C6100082DE9F04D52
:1031F0008D4F21F0004A86B005460C46BA452ADBC1
:10320000AAEB070028430AD08848824501DC1AD17E
:10321000CDB106B02846BDE8F04DFFF736BD844A73
:10322000844B2846FDF73FF907460E46824A834BFA
:1032300028462146FDF737F906B03A463346BDE841
:10324000F04DFDF789B80120FFF742FD06B0BDE85B
:10325000F04DFFF71FBD7A48824542DABAF1795F37
:103260000BDA2846FFF7A8FC042808BFFFF718FD73
:10327000284606B02146BDE8F08D2A460B4610468A
:10328000FDF711F9834602466E480E460B460621AD
:103290007844FFF7A5FC5A463346FDF704F980460B
:1032A00069488A465A46334604217844FFF798FC19
:1032B0005A463346FDF7F7F800223B46FDF74CF837
:1032C00002460B4640465146FDF75FF92A46234623
:1032D000FDF7E9F806B02A462346BDE8F04DFDF7B4
:1032E0003BB8284624F0004100223D463B46FDF70E
:1032F000D7F84FF0FF32FDF78DFB064602465348E4
:103300000F460B4606217844FFF76AFC32463B46DF
:10331000FDF7C9F8CDE900014D4832463B4604218E
:103320007844FFF75DFC32463B46FDF7BCF80022CF
:103330002B46FDF711F8834602913046394602F0DC
:10334000A1FE804643480D46504517DCDDE90001EB
:103350005A46029BFDF719F942462B46FDF7A3F8A2
:1033600042462B46FCF7F8FF0122FDF753FB304A9B
:10337000304BFDF792F8304A304B4CE04FF0000AEA
:1033800052460B464046FCF7E7FFCDE90310524694
:103390002B4610461946FDF786F832463B46FDF7A8
:1033A0007FF8DDE90332FDF7F0F806460F46DDE968
:1033B00000015A46029BFDF7E8F88346009101227E
:1033C00030463946FDF726FB194A1A4BFDF768F8D7
:1033D00006460F46012240462946FDF71BFB5A468A
:1033E000009BFDF760F832463B46FDF756F806466F
:1033F0000F46012250462946FDF70CFB0E4DDFF823
:1034000058802A464346FDF74BF832463B46FDF7C7
:1034100047F82A464346FDF743F8002CD8BF81F011
:10342000004106B0BDE8F08D0000F03F0000F07FE5
:10343000075C143326A6913C182D4454FB21F93F18
:103440000000E03F444300005A430000CE42000029
:10345000E44200003333EF3FFB21E93F2DE9F84F11
:1034600004460D4621F0004000917349814211DC71
:103470007249884201DC06D12CB120462946BDE8BC
:10348000F84FFFF702BC6E48002DCCBF6D496E4966
:10349000BDE8F88F6D49814211DD6D498142D8BF89
:1034A0004FF0FF366DDD20462946FFF785FB0428E7
:1034B00008BFFFF7F5FB20462946BDE8F88F6549B0
:1034C000654F25F00045814233DD6449814219DDB5
:1034D000002632464FF0804320462946FCF73CFF49
:1034E00080468A46012220462946FDF793FA0022AB
:1034F0003B46FCF7D2FF42465346FDF746F80446EA
:103500000D463EE001260022BA463B4620462946AB
:10351000FCF722FF80460F460022534620462946EC
:10352000FCF7BBFF42463B46FDF72FF804460D462D
:1035300027E04B4981421BDDDFF828A1022600224B
:10354000534620462946FCF7AEFF00223B46FCF7D7
:1035500003FF80460F460022534620462946FCF7CB
:103560009CFF42463B46FDF710F804460D4608E036
:10357000032622462B4600203B49FDF706F8044669
:103580000D4622462B4610461946FCF78CFF8B460B
:10359000824602460B46FCF786FF07460246334842
:1035A00088460B4606217844FFF71AFB52465B46D5
:1035B000FCF779FF82462E488B463A464346052162
:1035C0007844FFF70DFB3A464346FCF76CFF024692
:1035D0000B46002E504659460CDAFCF7BDFE22463B
:1035E0002B46FCF760FF01B022462B46BDE8F04FAA
:1035F000FCF756BFFCF7B0FE22462B46FCF753FF04
:103600001C4A7A4402EBC603D3E90023FCF745FFCA
:1036100022462B46FCF741FF174A7A4402EBC603C9
:10362000D3E90023FCF73CFF009A002AB8BF81F0E1
:103630000041BDE8F88F0000000010440000F07F5A
:10364000182D4454FB21F93FFB21F9BF0000DC3F5A
:103650000000203E0000F33F0000F03F0000E63F86
:10366000008003400000F83F0000F0BFE64000008B
:10367000A4400000424000000A4000002DE9F04D47
:103680009446CCF1000423F000464CEA0404594F60
:1036900046EAD4749A46884621F00042BC4206D8D5
:1036A000454240EA050442EAD474BC4204D9BDE86C
:1036B000F04D6246FFF7ECBAAAF14055A5F17F65DF
:1036C00055EA0C040BD0022404EAAA744A4DDFF830
:1036D0002CE144EAD87452EA000B04D00CE0BDE8B7
:1036E000F04DFFF7BBBE002C14BF012CBDE8F08DE0
:1036F000022C30D0032C32D056EA0C0B0AD0BE423A
:1037000020D1BA4209D126F0804622F080423346C9
:10371000114617E000291ADB25E0DFF8E4B0FB448E
:10372000002C04BFDBE90001BDE8F08D012C02BFD5
:10373000DBE9000181F00041BDE8F08D022C0AD0E8
:10374000032C0CD0BA4212D1B8F1000F0BDA2A4880
:103750002C49BDE8F08D28462B49BDE8F08D284660
:103760007146BDE8F08D24482849BDE8F08D921BD4
:1037700012153C2AC4BF204F244E10DCBAF1000FB2
:10378000BEBF12F13C0F00273E4608DB6246FCF745
:10379000FCFE21F00041FFF761FE07460E4694B1A2
:1037A000012C08BF86F000460DD0194A194B022C97
:1037B0003846314615D0FCF770FE2A46BDE8F04D7C
:1037C000114BFCF76ABE0022134638463146FCF71F
:1037D000E3FF04BF0220FFF77BFA38463146BDE81D
:1037E000F08DFCF75AFE2A46BDE8F04D064BFCF77B
:1037F00057BE00000000F07F182D4454FB2109C083
:103800009E3F0000FB21F9BFFB210940FB21F93F4E
:10381000075C143326A6A13C2DE9F0410446E0786C
:1038200000F0C006E07800F03F05607800F001008D
:1038300098B1EF102846E91705EB5171C910A5EBB7
:10384000C101491C01F0FF080B48006820B10A487B
:10385000414602683846904700BF607800F0080093
:1038600030B10548406818B1B011034A5168884723
:103870000020BDE8F0810000CC00002010B56FF002
:103880000400FEF73DFC0A4800680A49B0FBF1F06D
:10389000094908700846007800EB4001C1EBC010F0
:1038A0004FF6FF7101EAC0000449088010BD000016
:1038B0000000002000127A00280000202A000020CA
:1038C0000146114A12884A434FF0E0235A61002210
:1038D0009A611A46126942F001021A6100BF4FF064
:1038E000E022106900F001021AB100F48032002ACF
:1038F000F5D04FF0E022126922F001024FF0E023F0
:103900001A6100229A6170472A0000200146114A7C
:1039100012784A434FF0E0235A6100229A611A4616
:10392000126942F001021A6100BF4FF0E0221069F3
:1039300000F001021AB100F48032002AF5D04FF0F5
:10394000E022126922F001024FF0E0231A61002206
:103950009A6170472800002038B5044664B12020E1
:103960008DF8000028208DF8010030208DF802002D
:1039700038208DF8030004E0A32204216846FCF7F8
:1039800004FC6A46042140F69E2002F045FA01F04C
:103990002FFE38BD3EB5044602208DF80000CA2037
:1039A0008DF80100E3208DF8020009208DF8030056
:1039B0006A460421682002F02FFAA3208DF8000047
:1039C00004F0400048B1C0208DF80100C8208DF8F7
:1039D0000200C2208DF8030006E0A3208DF801004C
:1039E0008DF802008DF8030004F4C07048B1C420C3
:1039F0008DF80400CC208DF80500C6208DF8060057
:103A000006E0A3208DF804008DF805008DF806006F
:103A1000A3208DF807008DF808008DF809006A468C
:103A20000A2140F6A72002F0F7F904F0030018B1CC
:103A300020208DF8000002E0D8208DF800006A46B2
:103A4000012140F6B62002F0E7F904F0200018B199
:103A5000012000F0ADF802E0002000F0A9F804F425
:103A6000C07008B304F4807060B1B2208DF800001B
:103A70008B208DF80100B6208DF802009B208DF878
:103A800003000BE0B0208DF8000080208DF80100CD
:103A9000B4208DF8020090208DF803006A460421BE
:103AA00040F6A22002F0B8F904F0010020B3F8209B
:103AB0008DF800006A4601214FF40B6002F0ACF96A
:103AC000FA21072000F02CFC072000F0F3FB012076
:103AD00000F013FC642000F0F3FC4FF4FA7000F0E7
:103AE00002FDC821304800F0A3FB282000F0BCFBF9
:103AF0000A2000F0CCFB08E0D8208DF800006A46D0
:103B000001214FF40B6002F087F904F0020018B1B4
:103B1000D9208DF8000002E0D8208DF800006A4618
:103B2000012140F23D7002F077F904F0040018B171
:103B3000012000F069F802E0002000F065F804F0D0
:103B4000100018B10120FFF707FF02E00020FFF787
:103B500003FF44F008001549488101F049FD0020A9
:103B60001249887304F0400018B10846807B801D1C
:103B7000887304F4C07020B10C48807B801D0B4911
:103B8000887304F0140020B10848807B1030074986
:103B9000887304F0030020B10448807B001D0349B2
:103BA000887300203EBD000009E3CA02CC0000205B
:103BB0003EB504466CB10EA1D1E900208968CDE97B
:103BC000002002916A4609214FF4976002F024F91F
:103BD0003EBD0AA2D2E900109268CDE9010200912F
:103BE0006A4609214FF4976002F016F9F0E70000E9
:103BF000B8AAB38DB4980D355D000000B8AAAAAA82
:103C0000B088C3C5C700000038B5044664B1C02001
:103C10008DF80000C2208DF80100C4208DF802004C
:103C2000C6208DF8030004E08B2204216846FCF7CF
:103C3000ACFA6A46042140F6982002F0EDF801F053
:103C4000D7FC38BD10B5C8234FF48062024940F656
:103C5000F63001F061FB10BDC46100082DE9F04FA2
:103C60008DB00746884615469946DDE9166B002457
:103C7000002030806B49887B5A4605A901F018FC6A
:103C800018B1601E0DB0BDE8F08F6648807A00F074
:103C90001400002867D09DF8140000069DF8151048
:103CA00040EA01409DF8161040EA01209DF81710E7
:103CB000084328609DF8180000069DF8191040EA96
:103CC00001409DF81A1040EA01209DF81B1008439E
:103CD00068609DF81C0000069DF81D1040EA014038
:103CE0009DF81E1040EA01209DF81F100843A860AF
:103CF0009DF8200000069DF8211040EA01409DF843
:103D0000221040EA01209DF823100843E86004F1E6
:103D10001000C4B228680014019068680014029072
:103D2000A86800140390E8680014049001984043C8
:103D3000029901FB0100039901FB0100049901FBB9
:103D4000010ABAF1706F02DBBAF1885F05DD01F09C
:103D50004FFC00203080401E94E7B6F9000040F48C
:103D60008070308000BF2F48807A00F0400020B380
:103D700005A9601C085C095D40EA012000B2A8F8B2
:103D8000000005A9E01C095C05AAA01C105C41EA22
:103D9000002000B2A8F8020005A9601D095C201DE2
:103DA000105C41EA002000B2A8F80400A01DC4B2D3
:103DB000B6F9000040F0080030801A48408900F44D
:103DC000C07008B305A9601C085C095D40EA0120C9
:103DD00000B2388005A9E01C095C05AAA01C105C93
:103DE00041EA002000B2788005A9601D095C201D11
:103DF000105C41EA002000B2B880A01DC4B2B6F940
:103E0000000040F0700030800648807A00F0030027
:103E100018B105A90819FFF7FFFC484600F00EFF8E
:103E200000202FE7CC00002070B588B0064601A81E
:103E300001F0C6F8BDF804000021C90341EA50456D
:103E4000C4034448007A00F0030056F820000590AF
:103E50004048007A00F0040010B1059840420590F7
:103E60003C48007AC0F3C10056F82000069039485B
:103E7000007A00F0200010B10698404206903548C4
:103E8000007AC0F3811056F820000790314800896D
:103E900000F4807010B10798404207900598C11750
:103EA000A0FB042301FB043100FB0510810041EA63
:103EB000927005900698C117A0FB042301FB043102
:103EC00000FB0510810041EA927006900798C11727
:103ED000A0FB042301FB043100FB0510810041EA33
:103EE000927007900598000E8DF808000598000C58
:103EF0008DF809000598000A8DF80A000598C0B2EF
:103F00008DF80B000698000E8DF80C000698000C3A
:103F10008DF80D000698000A8DF80E000698C0B2C4
:103F20008DF80F000798000E8DF810000798000C10
:103F30008DF811000798000A8DF812000798C0B29A
:103F40008DF8130002AA0C214FF4257001F064FFD4
:103F500008B070BDCC00002030B585B0044616A274
:103F600007CA02AB07C3C82C03DD4FF0FF3005B012
:103F700030BDC82090FBF4F0401E85B2280A8DF8B1
:103F80000000E8B28DF801006A46022140F21620D6
:103F900001F042FF10B14FF0FF30E8E702AA0C2118
:103FA00040F6C12001F038FF10B14FF0FF30DEE7DE
:103FB000044884810020DAE7FEF2ABC4AAF1DFDF17
:103FC000BBAFDFDFCC0000201FB504464848007AB5
:103FD00000F0030054F8200001904548007A00F0FA
:103FE000040010B10198404201904148007AC0F3AA
:103FF000C10054F8200002903D48007A00F02000F3
:1040000010B10298404202903948007AC0F3811002
:1040100054F8200003903648008900F4807010B1F5
:104020000398404203903349019880FB0101800FBF
:1040300040EA810001902F49029880FB0110820024
:1040400042EA917002902B49039880FB0110820094
:1040500042EA917003900198000E8DF800000198DB
:10406000000C8DF801000198000A8DF802000198FB
:10407000C0B28DF803006A4604214FF4747001F059
:10408000CBFE18B14FF0FF3004B010BD0298000E07
:104090008DF800000298000C8DF801000298000ACB
:1040A0008DF802000298C0B28DF803006A46042120
:1040B0004FF4757001F0B0FE10B14FF0FF30E3E740
:1040C0000398000E8DF800000398000C8DF8010095
:1040D0000398000A8DF802000398C0B28DF803001F
:1040E0006A4604214FF4767001F096FECCE700009A
:1040F000CC00002009E3CA0210B586B0044647A0F0
:104100000068039046A00068029046A000680190F5
:1041100045A00068009004F0030003A9085C8DF836
:10412000140003A8C4F3C101405C8DF8150003A876
:10413000C4F38111405C8DF8160004F0030002A95D
:10414000085C8DF8100002A8C4F3C101405C8DF832
:10415000110002A8C4F38111405C8DF8120005AA79
:10416000032140F2264001F057FE18B14FF0FF3016
:1041700006B010BD04AA032140F22A4001F04CFE13
:1041800010B14FF0FF30F3E70198059000980490CC
:1041900004F0040058B19DF8140040F001008DF8BF
:1041A00014009DF8100040F001008DF8100004F09C
:1041B000200058B19DF8150040F001008DF8150061
:1041C0009DF8110040F001008DF8110004F480709A
:1041D00058B19DF8160040F001008DF816009DF8CA
:1041E000120040F001008DF8120005AA03214FF4DF
:1041F000886001F011FE10B14FF0FF30B8E704AA5B
:10420000032140F2314001F007FE10B14FF0FF30C2
:10421000AEE7064804810020AAE700004CCD6C0000
:104220000CC92C003656760026466600CC000020CD
:10423000F8B505460E464FF47A7095FBF0F000FB9A
:1042400006F4200E8DF80000200C8DF80100200AE5
:104250008DF80200E0B28DF803006A4604214FF4A5
:10426000AE7001F0D9FDF8BD38B50446052094FBC9
:10427000F0F084B220128DF80000E0B28DF8010059
:104280006A4602214FF4AD7001F0C6FD38BD38B565
:104290000446052094FBF0F084B220128DF8000053
:1042A000E0B28DF801006A4602214FF4AC7001F0D3
:1042B000B3FD38BD38B504460020009004F001007D
:1042C00020B19DF8000040F03000009004F00200A2
:1042D00020B19DF8000040F00C00009004F00400B4
:1042E00020B19DF8000040F0030000906A460121D3
:1042F0004FF4A47001F090FD38BD38B50446012C90
:1043000001DA012402E0042C00DD0424601EC0B2A6
:1043100000906A46012140F24F1001F07DFD38BD4A
:104320002DE9FC4706460F4606F0070010B1B7F529
:10433000C86F03DD4FF0FF30BDE8FC873846FCF75F
:104340009CF981465949FBF7C9FF8046684600F051
:1043500011FE9DF80000022806D0042816D0082877
:1043600026D0102848D135E04FF08D414046FBF76C
:1043700083FF8146FCF7B0F984B24D494046FBF714
:104380007BFF8146FCF7A8F985B238E04FF08C41FD
:104390004046FBF771FF8146FCF79EF984B2454920
:1043A0004046FBF769FF8146FCF796F985B226E0A7
:1043B0004FF08B414046FBF75FFF8146FCF78CF9DD
:1043C00084B23D494046FBF757FF8146FCF784F92C
:1043D00085B214E04FF08A414046FBF74DFF81461D
:1043E000FCF77AF984B235494046FBF745FF814630
:1043F000FCF772F985B202E04FF0FF309CE700BF96
:1044000020128DF80400E0B28DF8050028128DF816
:104410000600E8B28DF8070006F00100A0B101AA7D
:1044200002214FF4EA7001F0F7FC10B14FF0FF30B9
:1044300082E70DF1060202214FF4927001F0ECFCCC
:1044400010B14FF0FF3077E706F00200A0B101AAEB
:1044500002214FF4EC7001F0DFFC10B14FF0FF309F
:104460006AE70DF1060202214FF4947001F0D4FCCA
:1044700010B14FF0FF305FE706F00400A0B101AAD1
:1044800002214FF4EE7001F0C7FC10B14FF0FF3085
:1044900052E70DF1060202214FF4967001F0BCFCC8
:1044A00010B14FF0FF3047E7002045E700004843D8
:1044B000000040460000C045000040450000C044E8
:1044C00038B50446052094FBF0F085B228128DF82B
:1044D0000000E8B28DF801006A4602214FF4EF7047
:1044E00001F09AFC38BD38B50446052094FBF0F085
:1044F00085B228128DF80000E8B28DF801006A46F6
:1045000002214FF4ED7001F087FC38BD00BF054A71
:10451000128802F04002002AF9D0C2B2014B1B1DE2
:104520001A807047004400407CB505462849496818
:10453000087801AB04220D21FCF7F0FF08B1072039
:104540007CBD9DF80700C0F301109DF8041001F038
:10455000E00140EAE1008DF800009DF80700C0F39B
:1045600081009DF8051001F0E00140EAE1008DF8BE
:1045700001009DF8070000F003009DF8061001F00F
:10458000E00140EAE1008DF8020000241CE01DF883
:10459000040018B9002045F8240013E00D4845F840
:1045A000240006E055F824000B49FBF765FE45F8AA
:1045B00024001DF80400401EC0B20DF804000028BD
:1045C000F0D100BF601CC4B2032CE0DB0020B7E7D1
:1045D0002C0000207B14AE3E1D5A843F2DE9F04F85
:1045E00087B005460C46914601208DF8100000204A
:1045F0008DF81100FE4A1268917CFD4A52681078CD
:1046000004AB0222FDF730F820B14FF0FF3007B0C5
:10461000BDE8F08FC820FFF753F900208DF8100097
:10462000F34A1268D17BF24A5268107804AB012237
:10463000FDF71AF810B14FF0FF30E8E7EC4A1268C6
:104640005179EB4A5268107804AB0122FDF70CF85F
:1046500010B14FF0FF30DAE7E54A1268917CE44A86
:104660005268107804AB0122FCF7FEFF10B14FF046
:10467000FF30CCE7DE4A1268D17DDD4A52681078FF
:1046800004AB0122FCF7F0FF10B14FF0FF30BEE7A2
:10469000D74A12681179D64A5268107804AB0122C1
:1046A000FCF7E2FF10B14FF0FF30B0E70C208DF8BF
:1046B0001000CF4A12681179CD4A5268107804ABC5
:1046C0000122FCF7D1FF10B14FF0FF309FE70F2020
:1046D000FFF7F6F8C648806A407A8DF81000C44AA1
:1046E00012689178C24A5268107804AB0122FCF734
:1046F000BBFF10B14FF0FF3089E7BD48806A007AF8
:104700008DF81000BA4A12685178B94A5268107888
:1047100004AB0122FCF7A8FF10B14FF0FF3076E7A1
:10472000B9F1000F07D0B248806A807A40F0E0000B
:104730008DF8100004E0AE48806A807A8DF8100091
:10474000AB4A12689179AA4A5268107804AB0122E8
:10475000FCF78AFF10B14FF0FF3058E7B9F1000FB6
:1047600007D0A348806AC07A40F0E0008DF81000BE
:1047700003E0A048C07A8DF810009D4A1268D179F4
:104780009B4A5268107804AB0122FCF76DFF10B110
:104790004FF0FF303BE7B9F1000F02D0C820FFF720
:1047A0008FF840208DF81000914A12681179904AD4
:1047B0005268107804AB0122FCF756FF10B14FF09D
:1047C000FF3024E778208DF81000894A126851796B
:1047D000874A5268107804AB0122FCF745FF10B1FC
:1047E0004FF0FF3013E783498889FFF769F800200D
:1047F0008DF810007E4A126851797D4A526810780F
:1048000004AB0122FCF730FF10B14FF0FF30FEE6A1
:10481000774A1268917A764A5268107804AB02227D
:10482000FCF77CFE10B14FF0FF30F0E69DF8110070
:104830009DF8101040EA012B0C209BFBF0F0C6B253
:104840000020A86068602860A060606020608246E8
:1048500065E0674A1268D17A654A5268107804ABFD
:104860000C22FCF75BFE10B14FF0FF30CFE69DF855
:1048700011009DF8101040EA012000B2ADF80800C8
:104880009DF813009DF8121040EA012000B2ADF827
:104890000A009DF815009DF8141040EA012000B2AE
:1048A000ADF80C00BDF90810206808442060BDF97F
:1048B0000A10606808446060BDF90C10A0680844E4
:1048C000A0609DF817009DF8161040EA012000B284
:1048D000ADF800009DF819009DF8181040EA01207D
:1048E00000B2ADF802009DF81B009DF81A1040EAD6
:1048F000012000B2ADF80400BDF90010286808449A
:104900002860BDF90210686808446860BDF90410A9
:10491000A8680844A8600AF1010000F0FF0AB24547
:1049200097DB3448D0F800C02868C117090441EA71
:1049300010410704624600233846FBF7F5FB324678
:104940000023CDE90201FBF7EFFB28602948D0F8EE
:1049500000C06868C117090441EA104107046246B3
:1049600000233846FBF7E0FB32460023CDE9020185
:10497000FBF7DAFB68601F48D0F800C0A868C117D1
:10498000090441EA10410704624600233846FBF758
:10499000CBFB32460023CDE90201FBF7C5FBA86043
:1049A0001448D0F804C02068C117090441EA104136
:1049B0000704624600233846FBF7B6FB3246002365
:1049C000CDE90201FBF7B0FB20600A48D0F804C033
:1049D0006068C117090441EA1041070462460023D8
:1049E0003846FBF7A1FB32460023CDE9020103E084
:1049F0002C0000209C610008FBF796FB60601148CA
:104A0000D0F804C0A068C117090441EA10410704A6
:104A1000624600233846FBF787FB32460023CDE988
:104A20000201FBF781FBA060A068002804DDA068FC
:104A3000A0F58030A06003E0A06800F58030A060A1
:104A40000020E4E59C6100082DE9FC5F06460F4666
:104A500000253D494968087801AB03220D21FCF788
:104A60005DFD10B10720BDE8FC9F9DF8040000F03B
:104A70001F008DF804009DF8050000F01F008DF860
:104A800005009DF8060000F01F008DF806000024C8
:104A900056E056F8240057F82410A0EB010BBBF1A8
:104AA000000F01DB594601E0CBF100010846FBF79E
:104AB000DBFD4FF08F410090FBF710FC814601A811
:104AC000005D68B321490868FBF7D7FD8346594666
:104AD0001F48FBF703FC804604E01E494046FBF7F5
:104AE000CBFB804601A8005D401EC0B201A908555D
:104AF0000028F2D141464846FBF7F0FB83464FF0D1
:104B00007E51FBF7B3FB82462AF0004B0F488169C8
:104B10005846FBF77FFE12D20120A04005430EE06D
:104B20000A4801694846FBF76BFE05D3074841690F
:104B30004846FBF76FFE02D20120A0400543641CEB
:104B4000032CA6DB28468EE72C0000209C61000881
:104B500000B04C4554E3853F10B50446204600F0B4
:104B60000FF80346E01C00F00BF843EAC00083B2E4
:104B7000A01D00F005F843EA801083B2184610BD6E
:104B8000014691F90020002A01DD00201EE091F984
:104B90000020002A01DA042018E091F90120002AFF
:104BA00001DD012012E091F90120002A01DA05203F
:104BB0000CE091F90220002A01DD022006E091F9C3
:104BC0000220002A01DA062000E0072070470000DA
:104BD000FEF754FE144801F07BFAFCF745FC05E0B3
:104BE00012A0FDF7D9FFC820FEF76AFE00F072F9A7
:104BF0000028F5D1FCF7A8F8FBF7DAFFFBF788FFF0
:104C0000002141F61F40FDF7E9F8FCF79DFAFCF79B
:104C1000DBFEFCF79FFD01F03FF904E001F058F9DD
:104C20003220FEF74DFEF9E720A107004D50553622
:104C3000303530204572726F7200000070470000FE
:104C400070B50446002624F00104184890F82400AA
:104C500008B1002070BD1548807A10B94FF0FF30C0
:104C6000F8E71248057C807A20401049087408460D
:104C7000007CA04202D04FF0FF3600E0002614B9BD
:104C80000A48007D18B1012001F0B4F902E00020CB
:104C900001F0B0F93CB100F0ABFC20B10348057461
:104CA0004FF0FF30D6E73046D4E700002C0000205C
:104CB0002DE9F04F99B004460D4616464FF07E5749
:104CC0004FF000084FF000094FF0000A12A813A996
:104CD00018AB0EAACDE9001014A916A8FEF7BEFF66
:104CE00018B1012019B0BDE8F08FBDF84C0000F4F8
:104CF000807000287ED00E98FBF7B6FC83464FF0FC
:104D00009D41FBF7EBFA07460F98FBF7ADFC834696
:104D10004FF09D41FBF7E2FA80461098FBF7A4FCA8
:104D200083464FF09D41FBF7D9FA81461198FBF776
:104D30009BFC83464FF09D41FBF7D0FA82463946F3
:104D40004FF08040FBF798FA49460590FBF794FA3C
:104D5000414607904FF04040FBF78EFA51460590D0
:104D6000FBF78AFA06900799FBF72EFA8346FBF7C2
:104D7000FFFCCDE90801FEF739FA4FF06632544BDB
:104D8000CDE90A01FBF78FFBCDE90C01FBF71CFD18
:104D9000206049464FF08040FBF76EFA494602908A
:104DA000FBF76AFA414604904FF04040FBF764FA83
:104DB00041460290FBF760FA03900499FBF756FA1C
:104DC00083464FF07E51FBF7FFF90590FBF7D0FCCF
:104DD000CDE9080139464FF08040FBF74DFA4146D6
:104DE0000390FBF749FA494604904FF08040FBF7E7
:104DF00043FA00E068E051460390FBF73DFA834632
:104E00000499FBF7E1F90590FBF7B2FCCDE9060147
:104E1000DDE90823FEF732FC4FF066322C4BCDE97A
:104E20000A01FBF740FBCDE90C01FBF7CDFC286044
:104E300051465046FBF720FA494604904846FBF796
:104E40001BFA414603904046FBF716FA394601909B
:104E50003846FBF711FA00900199FBF7B5F902907B
:104E60000399FBF703FA83460499FBF7FFF90590D2
:104E7000FBF77EFCCDE9080151463846FBF7FCF90B
:104E8000494604904046FBF7F7F903900499FBF775
:104E90009BF94FF080410590FBF7EEF98346FBF755
:104EA00067FCCDE90601DDE90823FEF7E7FB4FF0DB
:104EB0006632074BCDE90A01FBF7F5FACDE90C01A3
:104EC000FBF782FC306001E002200BE7002009E7DD
:104ED00066A64C4070B50024FCF7A6F900F024F952
:104EE000002840D1782000F02FFFC4B20CB101207F
:104EF00070BD7820FFF7A4FEC4B20CB10220F7E722
:104F0000C82000F0D3FEC4B20CB10320F0E7FEF7D6
:104F100099FEC4B20CB10420EAE71548FFF71CFE65
:104F20000546FFF7E9F8C4B20CB10520E0E740F20E
:104F30007310FEF72FFDC4B20CB10620D8E7C820CD
:104F4000FFF70AF8C4B20CB10720D1E701F008F866
:104F500004460CB10820CBE7012000F0A3FDC4B249
:104F60001CB10920C4E70A20C2E70020C0E7000006
:104F70005800002001461148407A30B1012807D07E
:104F8000022808D003280CD108E0022008700BE0AA
:104F90000420087008E00820087005E01020087060
:104FA00002E04FF0FF30704700BF0448C07C18B1EA
:104FB00008784006000E08700020F4E72C0000205E
:104FC00001461348407A30B1012808D002280AD09F
:104FD000032810D10BE04FF4804008800EE041F62A
:104FE0009C7008800AE04FF48050088006E04FF47F
:104FF0000060088002E04FF0FF30704700BF0448B7
:10500000C07C10B10888401008800020F5E700003F
:105010002C00002001460248007C087000207047E8
:105020002C00002001460F48007A30B1012807D03B
:10503000022809D003280FD10AE0FA2008800EE0E8
:105040004FF4FA7008800AE04FF47A70088006E0A6
:105050004FF4FA60088002E00020088000BF00BF23
:10506000002070472C00002001460E48007A30B125
:10507000012807D0022808D003280CD108E00A48EC
:1050800008600BE00948086008E00948086005E08E
:105090000848086002E04FF0FF30704700BF002072
:1050A000FBE700002C0000200000034300008342C7
:1050B000333303423333834101461248C07A082810
:1050C00017D2DFE800F01704070A0D101318BC20F0
:1050D000088013E06220088010E02A2008800DE09C
:1050E000142008800AE00A20088007E005200880D4
:1050F00004E000BF00BF0020088000BF00BF002008
:10510000704700002C0000200146064890F824005B
:1051100010B14FF0FF3070470248C089088000206E
:10512000F9E700002C0000201CB580208DF800005D
:10513000654A1268917C644A526810786B46012275
:10514000FCF792FA10B14FF0FF301CBD6420FEF75F
:10515000B7FB00208DF800005B4A1268917C5A4A28
:10516000526810786B460122FCF77EFA10B14FF0BE
:10517000FF30EAE7544A1268917D534A526810782A
:105180006B460622FCF7CAF910B14FF0FF30DCE79E
:105190009DF80500C007400F9DF8031001F00101C4
:1051A00040EA41009DF8011001F0010140EA0104CC
:1051B00094B1012C03D101214348C17431E0022C88
:1051C00003D100214048C1742BE021463FA0FDF7E8
:1051D000E3FC4FF0FF30B8E73B4A1268D1783A4A17
:1051E000526810786B460122FCF798F910B14FF025
:1051F000FF30AAE79DF8000000F00F042CB93D48ED
:10520000FDF7CAFC4FF0FF309FE7042C06D13AA00F
:10521000FDF7C2FC01212C48C17402E000212A489C
:10522000C174FF2128488172FF2027490872FF219D
:1052300025484172C1724FF6FF71C181FF2101748F
:1052400081740121017380F82210002180F823105D
:10525000417501751630016041608160163880F833
:10526000241080F82510C1844FF4FA6000F062FC2D
:1052700010B14FF0FF3068E7022000F02BFB10B1B7
:105280004FF0FF3061E72A2000F0CEFC10B14FF064
:10529000FF305AE7322000F009FD10B14FF0FF3027
:1052A00053E70020FFF7CCFC10B14FF0FF304CE784
:1052B000002000F051FB10B14FF0FF3045E7002017
:1052C00000F042FD002040E72C000020556E737571
:1052D00070706F7274656420736F66747761726545
:1052E0002070726F64756374207265762025642E59
:1052F0000A000000C876000848616C662073656E7D
:105300007369746976697479207061727420666F4C
:10531000756E642E0A0000002DE9F04385B0054645
:105320000E4690469946294890F8250020B14FF046
:10533000FF3005B0BDE8F08316B94FF0FF30F8E755
:10534000002423E0281B102801DD102000E0281B8A
:1053500087B232193946204600F05EFD10B14FF099
:10536000FF30E6E701AA3946204600F001F910B106
:105370004FF0FF30DDE730193A4601A9FAF717FF81
:1053800010B16FF00100D4E7E01984B2AC42D9DB70
:105390004FEA28208DF8000008F0FF008DF801008A
:1053A0000A4A1268917E094A526810786B460222B6
:1053B000FCF75AF910B14FF0FF30BAE7012103486A
:1053C00080F82510A0F826900020B2E72C000020DD
:1053D00038B50446282C02DD4FF0FF3038BDDCB96B
:1053E000002000F0EBFB00208DF8000007208DF876
:1053F00001002E4A1268917C2C4A526810786B4644
:105400000222FCF731F910B14FF0FF30E6E700213E
:10541000264801750020E1E7012000F0CFFB2020A5
:105420008DF80000012C06D100208DF80100052028
:1054300000F0FAFB17E0052C06DC01208DF80100D6
:10544000052000F0F1FB0EE0142C06DC02208DF8A4
:1054500001000A2000F0E8FB05E003208DF80100C0
:10546000142000F0E1FB9DF80100072101EB801002
:10547000C0B28DF801000D4A1268917C0B4A526847
:1054800010786B460222FCF7EFF810B14FF0FF30B6
:10549000A4E70821054881720021017301210175EB
:1054A0000020FFF7CDFB002098E700002C00002033
:1054B000F8B504460F4616462C4890F8240010B95B
:1054C0004FF0FF30F8BD2948807A10B94FF0FF3017
:1054D000F8E7264A1268917A244A526810786B4697
:1054E0000222FCF71BF810B14FF0FF30EAE79DF8FD
:1054F00001009DF8001040EA0125A54203DA0020D2
:105500003070401EDEE7194840684088B5EB600FF8
:1055100017DD164A1268517C144A526810786B469F
:105520000122FBF7FBFF10B14FF0FF30CAE79DF8F7
:10553000000000F0100020B100F05AF86FF00100F8
:10554000C0E7E2B2094B1B68D97A084B5B68187850
:105550003B46FBF7E3FF10B14FF0FF30B2E795FB9E
:10556000F4F0401E30700020ACE700002C0000205A
:10557000F8B504460D46164616B94FF0FF30F8BD93
:105580001A48807A10B94FF0FF30F8E720128DF8F2
:105590000000E0B28DF801009DF801002844134995
:1055A00049684989884202DD4FF0FF30E7E70F4A3A
:1055B0001268117E0D4A526810786B460222FCF781
:1055C00053F810B14FF0FF30D9E7EAB2074B1B6830
:1055D000597D064B5B6818783346FBF79FFF10B187
:1055E0004FF0FF30CBE70020C9E700002C0000207F
:1055F00008B57048807A10B94FF0FF3008BD002020
:1056000000906C4A1268D17B6A4A526810786B46E7
:105610000122FCF729F810B14FF0FF30EEE7654AA0
:1056200012685179634A526810786B460122FCF780
:105630001BF810B14FF0FF30E0E75E4A12681179B5
:105640005C4A526810786B460122FCF70DF810B1E5
:105650004FF0FF30D2E7574890F82400002853D08D
:105660000C200090534A12681179524A52681078FF
:105670006B460122FBF7F8FF10B14FF0FF30BDE79A
:105680003220FEF71DF9C02000904A48807A00F0D1
:10569000010020B19DF8000040F020000090454A34
:1056A00012681179434A526810786B460122FBF761
:1056B000DBFF10B14FF0FF30A0E73E48407C10B157
:1056C0000220009001E0002000903A4A1268D17B4D
:1056D000384A526810786B460122FBF7C5FF10B1BB
:1056E0004FF0FF308AE700200090324A126851796B
:1056F000304A526810786B460122FBF7B5FF00284C
:1057000055D04FF0FF3079E704200090294A126805
:105710001179284A526810786B460122FBF7A4FFE2
:1057200010B14FF0FF3069E72248807C20B9214852
:10573000807A00F0010010B94020009001E0602064
:1057400000901C4A126811791A4A526810786B4608
:105750000122FBF789FF10B14FF0FF304EE73220F6
:10576000FEF7AEF81348407C10B10120009001E034
:10577000002000900F4A1268D17B0E4A52681078C0
:105780006B460122FBF770FF10B14FF0FF3035E799
:10579000084A12685179074A52681078054B10334D
:1057A0000122FBF761FF10B14FF0FF3026E7002028
:1057B00024E700002C0000202DE9F04F8DB0834637
:1057C0000F4602200C90424890F8240020B100209F
:1057D00000F068F9012600E0002603A8FFF722FC8C
:1057E00005A8FFF7C7FB01A8FFF766FC02A8FFF7B3
:1057F0008BFC374890F80AA004A8FFF70BFC0024A4
:1058000007E0002239465846FEF7E8FE00B902E0FC
:10581000641C022CF5DB00BF022C01D1002528E01E
:10582000002407E0012206A909A8FEF7D7FE00B967
:1058300002E0641C022CF5DB00BF022C01D1002524
:1058400017E006A93846FDF77DFC00F0FF0809A91E
:105850005846FFF7F9F800F0FF090025B9F1000FED
:1058600001D145F00105B8F1000F01D145F0020565
:1058700000BFFF2016490872FF2115484172C1720E
:105880004FF6FF71C181FF21817201740121017303
:10589000BDF80C0000F04EF99DF8140000F01AF865
:1058A000BDF8040000F0C0F9BDF8080000F0FEF9F2
:1058B000504600F049FA9DF81000FFF7C1F916B103
:1058C000012000F0EFF828460DB0BDE8F08F000091
:1058D0002C00002038B504461E48807A10B94FF0DD
:1058E000FF3038BD022C06D0042C07D0082C08D07D
:1058F000102C0CD108E0002000900BE00820009054
:1059000008E01020009005E01820009002E04FF021
:10591000FF30E6E700BF0F48407A9DF80010B0EB7B
:10592000E10F01D10020DCE70A4A1268D179094A67
:10593000526810786B460122FBF796FE10B14FF0CB
:10594000FF30CEE79DF80000C110024841720020F0
:10595000C7E700002C00002038B504465048807C82
:10596000A04201D1002038BD002C46D04C4A12681C
:1059700011794B4A526810786B460122FBF7CEFD35
:1059800010B14FF0FF30EEE79DF8000020F020004E
:105990000090434A12681179414A526810786B4668
:1059A0000122FBF761FE10B14FF0FF30DBE703206F
:1059B000FDF786FF02200090394890F8220020B1C0
:1059C0009DF8000040F080000090354890F82300DA
:1059D00020B19DF8000040F030000090304A12687D
:1059E000117D2F4A526810786B460122FBF73CFE6E
:1059F000002851D04FF0FF30B5E7294A12681179DD
:105A0000274A526810786B460122FBF787FD10B1D8
:105A10004FF0FF30A7E72248807A00F0010028B15C
:105A20009DF8000040F02000009004E09DF8000088
:105A300020F0200000901A4A12681179184A526822
:105A400010786B460122FBF70FFE10B14FF0FF30CC
:105A500089E70320FDF734FF114890F8220010B1C8
:105A60008020009001E0002000900D4890F8230075
:105A700020B19DF8000040F030000090084A126804
:105A8000117D074A526810786B460122FBF7ECFD46
:105A900010B14FF0FF3066E701488474002062E7E0
:105AA0002C00002038B50446214890F82400A0427C
:105AB00001D1002038BD24B31D4890F8250010B94D
:105AC0004FF0FF30F6E7002000F094FA0020FFF7D7
:105AD00043FF1749C88C00F0E9F8002000901449F2
