:020000040800F2
:10000000A805002005010008BD110008230D000807
:10001000B9110008A30900086B1E000800000000C9
:10002000000000000000000000000000391400087B
:10003000A709000800000000DD1200088115000873
:100040001F0100081F0100081F0100081F01000810
:100050001F0100081F0100081F0100081F01000800
:100060001F0100081F0100081F0100081F010008F0
:100070001F0100081F0100081F0100081F010008E0
:100080001F0100081F0100081F0100081F010008D0
:100090001F0100081F0100081F010008E90A0008ED
:1000A0001F0100081F0100081F0100081F010008B0
:1000B0001F01000825180008411800081F0100084A
:1000C0001F0100081F0100081F0100081F01000890
:1000D0001F0100081F010008391C00081F0100084B
:1000E0001F0100081F0100081F010008DFF810D0E1
:1000F00000F0F4FB004800475D2A0008AFF30080E1
:10010000A80500200648804706480047FEE7FEE7AE
:10011000FEE7FEE7FEE7FEE7FEE7FEE7FEE7FEE7B7
:1001200085150008ED000008F0B480EA0102D40F44
:100130004200B2EB410F02D20246084611464A0085
:1001400042D0C30DDDB2C1F3C752AD1A202D35DA4E
:10015000C1F3160141F4000204B15242C5F1200678
:1001600002FA06F12A411044B3EBD05F23D0C4B1A8
:10017000012DA0EBC35009DCF0BC4FF0004202EAB5
:10018000C352DBB200F5000000F006BB400000F1F6
:10019000807000EBC350A0F1807040EAD17049003C
:1001A00009E0490841EAC071A0EBC35000F5000026
:1001B000400800EBC350F0BC00F0E5BA61420122F8
:1001C00002EB4101001BF6E7F0BC704781F00041F3
:1001D000AAE780F00040A7E780EA010210B502F02C
:1001E0000043400022D04A001FD0010E01EB1261F3
:1001F000C0F35600C2F3560240F4000042F400027D
:10020000A0FB022000047F39140400D0401C50EAF7
:10021000124001D44000491EC2B20C0604EBD010BB
:10022000401C4008802A02D003E0002010BD20F0CE
:100230000100002900DA0020184310BD30B480EA24
:10024000010202F0004530F0004221F0004013D0DE
:1002500090B1C30DD40DC2F31601C0F31600E41A19
:1002600041F4000140F400027D34914201D3641C4A
:1002700000E04900002C02DA30BC002070474FF447
:1002800000000023914201D3891A034340084FEA3A
:100290004101F7D151B1914202D14FF0004105E047
:1002A00002D24FF0010101E06FF0010103EBC450F5
:1002B000284430BC00F067BA2DE9FE4F804681EA41
:1002C0000300C00F0C46009021F0004123F00045D0
:1002D000B8EB0200A94105D24046214690461C4693
:1002E0000B46024623F00040104347D0270DC7F3CA
:1002F0000A00C3F30A510290401A019040286BDAB9
:10030000C3F3130040F4801B0098924620B10023F1
:10031000D2EB030A63EB0B0B01985946C0F1400284
:10032000504600F0FFF906460D4650465946019AE0
:1003300000F017FA10EB08006141002487EA11521F
:1003400084EAE7731A4340D0009A62B3019A012A03
:100350004FEA075215DC001B61EB02014FF000422F
:1003600002EA0752CDE90042001C41F580113246F5
:100370002B4600F04EFA03B0BDE8F08F4046214610
:10038000F9E7001B61EB0201001C41F58013001826
:100390005B412018A2F5001747EB030140EAD57036
:1003A000B6196D4111E06D084FEA360645EAC07591
:1003B0004FEA0752001B61EB0201001C41F580115E
:1003C00049084FEA30000019514132462B4603B02C
:1003D000BDE8F04F00F00EBA009801224000002363
:1003E000D0EB020263EBE073009821464FEAE07421
:1003F000B8EB000061EB0401E9E783F000435BE741
:1004000081F0004158E72DE9FE4F81EA030404F032
:10041000004421F0004100944FF0000B23F0004312
:1004200050EA01045ED052EA03045BD0C3F30A54DD
:10043000C1F30A552C44A4F2F3340194A0FB0254F6
:10044000C1F3130141F48011C3F3130343F4801388
:1004500001FB024400FB034E840A970A44EA8154DC
:1004600047EA8357A4FB076802958D0A05FB0785B9
:100470004FEA932C04FB0C542705029D4FEA0658C3
:1004800047EA1637B5EB08056EEB070C870E920EA0
:1004900047EA811742EA8312A7FB0201B6EB0B0180
:1004A00064EB00042B0D43EA0C335E1844EB1C5044
:1004B000DA465146E7FB0201C5F313044FEA0B335A
:1004C00043EA14534FEA0432019C43EA0603A4F1C1
:1004D0000C040294009CCDE900B400F09AF903B03A
:1004E000BDE8F08F00200146F9E72DE9F04D81EAE3
:1004F000030404F0004B21F0004514464FF0000ABD
:1005000023F0004150EA050220D054EA01021DD038
:10051000C5F30A570246C5F31303C1F31300C1F331
:100520000A5640F4801543F48013A7EB0608101B0D
:10053000D64608F2FD3873EB050002D308F1010836
:1005400001E092185B41B8F1000F03DA0020014688
:10055000BDE8F08D00204FF48011064684460EE081
:10056000171B73EB050705D3121B63EB050306434B
:100570004CEA010C49084FEA300092185B4150EAFE
:100580000107EDD152EA030012D082EA040083EAA7
:100590000501084305D0101BAB4106D20122002300
:1005A00006E000224FF0004302E06FF0010253101A
:1005B0001AEB06004CEB085110EB0A0041EB0B0163
:1005C000BDE8F04D00F016B9C10F80EAE0700844B4
:1005D000CA079623002100F0DFB80EB5C10F80EAEC
:1005E000E0700844CA07002140F233438DE80E0052
:1005F0000A460B4600F00DF903B000BD00F00042C2
:1006000020F00040C10DC0F3160040F400007F2927
:1006100001DA00207047962903DCC1F19601C84039
:1006200001E096398840002AF4D04042704770B506
:10063000C1F30A5201F000450024C1F3130140F256
:10064000FF3341F480119A4201DA002070BD40F27C
:1006500033439A42A2F2334203DC524200F071F873
:1006600000E090402C43F1D0404270BD00F00042C9
:1006700030F000400AD0C10D01F56071C0F31600E2
:1006800042EA0151C2084007114370470020014669
:100690007047000030B5041E71F1000404DB4FF018
:1006A0000044404264EB0101141E73F1000405DBB9
:1006B0001C464FF00043524263EB04038B4208BFD9
:1006C000824230BD01F0004330B421F0004150EAD5
:1006D000010206D00A0DA2F56072C1F31301002ACF
:1006E00002DC30BC00207047440F44EAC104C10062
:1006F000E01830BC00EBC25000F045B8002801DB28
:10070000C0F10040002901DBC1F100418142704786
:10071000002801DBC0F10040002901DBC1F10041EC
:1007200088427047202A04DB203A00FA02F10020B8
:1007300070479140C2F1200320FA03F3194390401F
:100740007047202A04DB203A21FA02F0002170478A
:1007500021FA02F3D040C2F1200291400843194629
:100760007047202A06DBCB17203A41FA02F043EA11
:10077000E07306E041FA02F3D040C2F1200291405A
:100780000843194670470029A8BF7047401C49001C
:1007900008BF20F00100704710B4B0FA80FC00FAE6
:1007A0000CF050EA010404BF10BC704749B1CCF111
:1007B000200421FA04F411FA0CF118BF012121439D
:1007C0000843A3EB0C01CB1D4FEA00614FEA102058
:1007D00042BF002010BC704700EBC35010440029FA
:1007E000A4BF10BC7047401C490008BF20F00100A6
:1007F00010BC704710B5141E73F1000408DA401CD9
:1008000041F1000192185B411A4301D120F001002F
:1008100010BD2DE9F04D92469B4611B1B1FA81F21F
:1008200002E0B0FA80F220329046FFF77BFF0446E8
:100830000F4640EA0A0041EA0B0153465A46084374
:1008400013D0114653EA010019D0C8F140025046B6
:10085000FFF777FF05460E46504659464246FFF7DA
:1008600061FF084305D0012004E020463946BDE879
:10087000F08D0020054346EAE0762C4337430A9882
:100880006305E40AA0EB08000022FD0A44EA47548D
:100890000A3002D500200146E9E701051019694137
:1008A000DDE9084500196941BDE8F04DA2E770B5E2
:1008B00021F0004303430CD0C1F30A550024D5EBCB
:1008C000040564EB0403D617AD1AB34102DB002024
:1008D000014670BD201841EB025170BD064C074D1A
:1008E00006E0E06840F0010394E807009847103400
:1008F000AC42F6D3FFF7FEFB88310008A8310008B0
:100900002DE9F04D00231A461B1A8A4103DB002013
:100910000146BDE8F08DC1F30A52C1F3130141F461
:1009200080154FF0000BD10702D100186D41521E07
:100930000027044640F2FF11384601EB620A3E46AA
:100940008046024600204FF48011FFF7FAFEC219DC
:100950007141BB1846EB0100B4EB030C75EB000CC6
:1009600004D3E41A65EB000517460E46241908F176
:1009700001006D4180463428E3DDF91946EB06009D
:10098000091BA84103D24FF0FF32134601E00022B9
:1009900013461BEB070046EB0A51BDE8F04DFFF78D
:1009A00029BF00BFFEE7704700B587B001210820CE
:1009B00000F0A6FC0121022000F092FC0320ADF81B
:1009C000180004208DF81B0006A91D4800F01CF932
:1009D00003A801F027F94FF6FF70ADF810000020D2
:1009E000ADF80C00ADF80E00ADF812008DF8140053
:1009F00003A9144801F0C4F800231A460321114842
:100A000000F04DFF684600F0D5FF0A20ADF8080061
:100A100069460C4800F078FF01210A4800F01EFFEB
:100A200001221146074800F0CEFF0021054801F0E1
:100A300079F80121034800F017FF07B000BD00005E
:100A4000000C01400004004000B587B001210820DF
:100A500000F056FC0121042000F042FCC020ADF85B
:100A6000180004208DF81B0006A91D4800F0CCF8E2
:100A700003A801F0D7F84FF6FF70ADF81000002082
:100A8000ADF80C00ADF80E00ADF812008DF81400B2
:100A900003A9144801F074F800231A4603211148F1
:100AA00000F0FDFE684600F085FF0A20ADF8080062
:100AB00069460C4800F028FF01210A4800F0CEFEEC
:100AC00001221146074800F07EFF0021054801F091
:100AD00029F80121034800F0C7FE07B000BD00005F
:100AE000000C01400008004070B5202000F078F8AC
:100AF00000284ED000BF294A29492A4801F0D6FFD4
:100B00000028F8D1284A2949294800F093F90420FF
:100B100000F070FC27490860032000F06BFC4042A5
:100B20002549086025480268084601682148006890
:100B300001F09EF9224908601C48B0F90000FFF757
:100B400043FD05461E480068FFF73EFD06461D486A
:100B500001683046FFF7E8FA04462A461048016863
:100B6000204601F019FA184908600846006817493C
:100B70000860154800681649086000F0D5F8084874
:100B8000006800F0CFFC124801681048006800F0CF
:100B9000F7F8202000F01EF870BD00007C00002057
:100BA00078000020740000208400002082000020D3
:100BB000800000209C000020A00000207000002089
:100BC000980000206C000020940000208C00002081
:100BD00090000020014908607047000014040140A3
:100BE000014600200022074B1B6803EA0102054B67
:100BF00014331B680B4013B10AB1012000E0002040
:100C000070470000000401402DE9F0410246002534
:100C10000026002000230024002791F803C00CF0D8
:100C20000F0591F803C00CF0100CBCF1000F03D0BD
:100C300091F802C04CEA050591F800C0BCF1000F24
:100C400031D0146800202BE04FF0010C0CFA00F3B7
:100C5000B1F800C00CEA03069E4220D183004FF099
:100C60000F0C0CFA03F7BC4305FA03FC4CEA04042E
:100C700091F803C0BCF1280F06D14FF0010C0CFA1B
:100C800000FCC2F814C00AE091F803C0BCF1480FA0
:100C900005D14FF0010C0CFA00FCC2F810C0401C4A
:100CA0000828D1D31460B1F800C0BCF1FF0F34DDC7
:100CB000546800202EE000F1080C4FF0010808FAFB
:100CC0000CF3B1F800C00CEA03069E4221D1830068
:100CD0004FF00F0C0CFA03F7BC4305FA03FC4CEA87
:100CE000040491F803C0BCF1280F05D100F1080CF1
:100CF00008FA0CF8C2F8148091F803C0BCF1480F50
:100D000007D100F1080C4FF0010808FA0CF8C2F8FE
:100D10001080401C0828CED35460BDE8F0814161AA
:100D2000704700BFFEE70000124800681249884281
:100D300003DA08460F49086008E00E48006841F6EB
:100D40005831884202DD08460A4908600B480068AD
:100D50000949884203DA08460849086008E007485C
:100D6000006841F65831884202DD084603490860B0
:100D7000704700008C000020A8E4FFFF90000020D6
:100D800070B505460C46002D07DD012018490860A6
:100D900000201849C1F8BC0106E000201449086091
:100DA00001201449C1F8BC01284601F0B3F986B20C
:100DB0003146114800F0B1FE002C08DD00200C493E
:100DC0000839086001200B49C1F8B40107E001208F
:100DD00007490839086000200649C1F8B4012046D7
:100DE00001F098F986B23146034800F098FE70BDD4
:100DF000B881214200802142002C014008B5012128
:100E0000082000F07DFA4FF47040ADF8000010208B
:100E10008DF8030003208DF8020069460448FFF7AF
:100E2000F3FE4FF470410248FFF779FF08BD000060
:100E3000000C01402DE9FC4104460D4616466B4668
:100E400006224321682000F04DF90746BFB99DF8FE
:100E500001009DF8001040EA012000B220809DF8BA
:100E600003009DF8021040EA012000B228809DF89E
:100E700005009DF8041040EA012000B23080384699
:100E8000BDE8FC8110B500200E4908600E480068DE
:100E900020F470400C4908600846006840F4405057
:100EA000086000200949C1F8AC0100F011F80120E8
:100EB0000449086000F00CF800200449C1F8A801BA
:100EC00010BD0000A8812142040C01400080214295
:100ED00010B5022001F0B6FC10BD000010B50020D6
:100EE0000E4908600E48006820F470400C49086004
:100EF0000846006840F44050086001200949C1F8E4
:100F0000AC01FFF7E5FF012004490860FFF7E0FFAF
:100F100000200449C1F8A80110BD0000A8812142A9
:100F2000040C01400080214270B50546002416489B
:100F3000006820F47040144908600846006840F4D6
:100F400000400860002614E0002010490860FFF708
:100F5000BFFF01200E49C1F8A8016006040E0B482E
:100F60007C38006808B1601CC4B2FFF7B1FF701C88
:100F7000C6B2082EE8DB15B9FFF7B0FF01E0FFF7B6
:100F800081FF204670BD0000040C0140A881214271
:100F90000080214270B504461248006820F4704079
:100FA000104908600846006840F44050086000207E
:100FB0000D490860002512E0E0090B49091D086091
:100FC0006006040E01200949C1F8A801FFF780FF5F
:100FD000002005490860FFF77BFF681CC5B2082D9B
:100FE000EADB70BD040C0140A8812142008021424F
:100FF00010B50E48006820F470400C49086008469F
:10100000006840F44050086001200949086009491F
:10101000C1F8A801FFF75CFF002005490860FFF751
:1010200057FF00200349C1F8A80110BD040C01407E
:10103000AC8121420080214210B50E48006820F4A6
:1010400070400C4908600846006840F44050086051
:101050000020094908600949C1F8AC01FFF738FFD1
:101060000120054908600549C1F8AC01FFF730FFD0
:1010700010BD0000040C0140A881214200802142E3
:1010800010B500241448006820F47040124908602C
:101090000846006840F40040086001200F490860DD
:1010A000FFF716FF01200E49C1F8A801FFF710FF56
:1010B00007E0601CC4B2FA2C03DDFFF7BDFF01207E
:1010C00010BD0648803800680028F2D10349091F86
:1010D000086000BFF4E70000040C0140AC8121422D
:1010E000008021422DE9F04106460F4614461D4678
:1010F000FFF77EFF002141EA4601C8B2FFF74AFF31
:10110000FFF7BEFF20B1FFF797FF0120BDE8F08198
:101110003846FFF73FFFFFF7B3FFFFF769FF0121F5
:1011200001EB4601C8B2FFF735FFFFF7A9FF0DE05D
:10113000012C04D10020FFF7F7FE287003E0012006
:10114000FFF7F2FE2870601EC4B26D1C002CEFD1B8
:10115000FFF772FF0020D9E72DE9F04105460E4662
:1011600017469846FFF744FF002141EA4501C8B2FF
:10117000FFF710FFFFF784FF20B1FFF75DFF0120AD
:10118000BDE8F0813046FFF705FFFFF779FF002447
:101190000CE018F80400FFF7FDFEFFF771FF18B12F
:1011A000FFF74AFF0120EBE7601CC4B2BC42F0DB52
:1011B000FFF742FF0020E3E700BFFEE770470000B3
:1011C00070B5002100230F22C47804B3154C2468A5
:1011D00004F4E064C4F5E064210AC1F10403CA40E8
:1011E000447804FA03F184781440214309010E4C39
:1011F0000678A155047804F01F050124AC40057859
:101200006D11AD0005F1E025C5F8004109E0047855
:1012100004F01F050124AC40044D0678761145F812
:10122000264070BD0CED00E000E400E080E100E04D
:1012300030B589B005460C46012140F6040000F0A7
:101240005FF84FF41060ADF8200018208DF82300EF
:1012500003208DF8220008A91E48FFF7D5FCADF841
:101260001850ADF814400020ADF81A00ADF8160083
:1012700005A9194800F084FC6020ADF804000120A5
:10128000ADF806000020ADF8080041F65830ADF882
:101290000A000020ADF80C004FF48070ADF810008B
:1012A00001A90D4800F098FB01A90B4800F0EAFBEA
:1012B0000821094800F0DCFB0821074800F020FC69
:1012C0000121054800F0D0FA0121034800F0D8FAC6
:1012D00009B030BD00080140002C014070470000FB
:1012E00029B1064AD2690243044BDA6104E0034A99
:1012F000D2698243014BDA6170470000001002405E
:1013000029B1064A92690243044B9A6104E0034AF8
:1013100092698243014B9A617047000000100240BD
:1013200030B500210022002400232D4D6D6805F00A
:101330000C0121B1042905D0082923D105E0294D4C
:10134000056022E0274D05601FE0254D6D6805F41E
:101350007012234D6D6805F48034022505EB92422E
:101360001CB9214D554305600BE01D4D6D6805F41A
:1013700000351DB11C4D5543056002E0194D554324
:10138000056002E0174D056000BF00BF144D6D6899
:1013900005F0F0010909154D6B5C0568DD404560FD
:1013A0000F4D6D6805F4E061090A104D6B5C4568EE
:1013B000DD4085600A4D6D6805F46051C90A0B4D2A
:1013C0006B5C4568DD40C560054D6D6805F44041C6
:1013D000890B074D6B5CC568B5FBF3F5056130BD46
:1013E0000010024000127A0000093D0014000020A5
:1013F0002400002070B50546032D0AD0042D11D11C
:101400000B4800F06DFA04B20021094800F08AFB95
:101410000AE0084800F064FA04B20021054800F030
:1014200081FB01E0002400BF00BF204670BD00002A
:101430000008004000040040704710B500F002F8BA
:1014400010BD00000CB500200190009033480068EA
:1014500040F480303149086000BF3048006800F433
:10146000003000900198401C0190009818B9019834
:10147000B0F5A06FF1D12948006800F4003010B138
:101480000120009001E0002000900098012843D145
:101490002348006840F010002149086008460068B1
:1014A00020F0030008600846006840F00200086071
:1014B0001A4840681949486008464068486008462C
:1014C000406840F4806048600846406820F47C1022
:1014D00048600846406840F4E810486008460068E4
:1014E00040F08070086000BF0C48006800F0007099
:1014F0000028F9D00948406820F0030007494860F7
:101500000846406840F00200486000BF0348406859
:1015100000F00C000828F9D10CBD000000100240BA
:101520000020024010B5044607492046FFF7E6F8C0
:1015300004D306492046FFF7EBF804D20020044903
:1015400008600449086010BD000020C2000020426D
:101550008C00002090000020042808D14FF0E021EA
:10156000096941F004014FF0E022116107E04FF0FA
:10157000E021096921F004014FF0E0221161704778
:101580007047000010B51348006840F00100114991
:10159000086008464068104908400E4948600846FF
:1015A00000680E4908400B4908600846006820F4AE
:1015B000802008600846406820F4FE0048604FF430
:1015C0001F008860FFF739FF4FF000600449086092
:1015D00010BD0000001002400000FFF8FFFFF6FE03
:1015E00008ED00E0F0B50C46154600220021068CFF
:1015F0004FF6FE773E400684028B018C4FF60C7648
:1016000032407E1C06EA03162E433243104EB0428F
:101610000ED0104EB0420BD0B0F1804F08D00E4E1D
:10162000B04205D00D4EB04202D00D4EB04206D1B0
:101630004FF6FD76314044F00106314305E04FF6A8
:10164000F576314044F00106314302830184F0BD58
:10165000002C01400034014000040040000800401C
:10166000000C0040F0B50C46154600220021002673
:10167000078C4FF6EF7C07EA0C070784028B018C7E
:101680004FF6FF7707EA041640F6FF473A404FF659
:10169000FF7707EA03373A434FF6FF7707EA052754
:1016A0003A43114FB8420ED0104FB8420BD0B0F1B0
:1016B000804F08D00E4FB84205D00E4FB84202D02E
:1016C0000D4FB84206D14FF6DF77394046F010078C
:1016D000394305E04FF65F77394044F0100739434E
:1016E00002830184F0BD0000002C01400034014061
:1016F0000004004000080040000C0040F0B50C461B
:101700001546002200210026078C4FF6FF6C07EAE1
:101710000C070784828B018C4FF6FF7707EA0426BB
:101720004FF60C773A404FF6FF7707EA03172F433F
:101730003A43114FB8420ED0104FB8420BD0B0F11F
:10174000804F08D00E4FB84205D00E4FB84202D09D
:101750000D4FB84206D14FF6FF57394046F4807717
:10176000394305E04FF2FF57394044F4807739435D
:1017700082830184F0BD0000002C01400034014050
:101780000004004000080040000C0040F0B50C468A
:101790001546002200210026078C4EF6FF7C07EA42
:1017A0000C070784828B018C4FF6FF7707EA04361B
:1017B00040F6FF473A404FF6FF7707EA05273A43DE
:1017C0004FF6FF7707EA03373A43114FB8420ED07E
:1017D000104FB8420BD0B0F1804F08D00E4FB84236
:1017E00005D00E4FB84202D00D4FB84206D14DF68B
:1017F000FF77394046F48057394305E047F6FF57F5
:10180000394044F48057394382830184F0BD00009D
:10181000002C01400034014000040040000800405A
:10182000000C004010B50121044800F05CF818B12C
:101830000121024800F015F810BD0000000400402E
:1018400010B50121044800F04EF818B101210248FA
:1018500000F007F810BD000000080040CA430282F3
:101860007047CA430282704721B1028842F00102E8
:10187000028004E002884FF6FE731A40028070472F
:1018800031B1B0F8442042F40042A0F8442005E011
:10189000B0F84420C2F30E02A0F844207047F0B51F
:1018A0000C4615461E460021002200230189028BAA
:1018B000038C4FF6F877394021434FF6FC473A4006
:1018C00040F201173A434FF6DD773B404FF6FF7782
:1018D00007EA06172F433B43018102830384F0BDCF
:1018E0000146888C704730B5024600200023002452
:1018F000158A05EA0103958905EA010413B10CB1C3
:10190000012000E0002030BD70B505460C4624489B
:1019100085420ED0234885420BD0B5F1804F08D0C8
:101920002148854205D02148854202D02048854281
:1019300000D100E000BF208850B92389A2886188C7
:101940002846FFF74FFEE188284600F0EDF825E035
:10195000208804280AD12389A28861882846FFF7B5
:1019600081FEE188284600F0E8F817E02088082882
:101970000AD12389A28861882846FFF7BFFEE18843
:10198000284600F0E7F809E02389A2886188284604
:10199000FFF7FCFEE188284600F0E5F870BD000086
:1019A000002C0140003401400004004000080040C9
:1019B000000C004000210180418001218180002134
:1019C000C180018170471AB183890B43838102E092
:1019D00083898B438381704770B5002400220023E4
:1019E000058C4FF6FE7635400584028C8388048B87
:1019F0004FF68F752C40B51E2C400D882C43751E5C
:101A00002A400D892A434D882A43144DA8420BD001
:101A1000134DA84208D0134DA84205D0124DA8423C
:101A200002D0124DA84213D14FF6F7752A404D89C6
:101A30002A434FF6FB752A408D882A434FF6FF65EF
:101A40002B404FF6FF552B408D892B43CD892B43DF
:101A500083800483CD888586028470BD002C01407C
:101A60000034014000400140004401400048014072
:101A70000A460021018B4FF6F77319401143018389
:101A80007047000070B5002200230024058C4EF63C
:101A9000FF7635400584038C8488828B48F6FF7579
:101AA0002A404FF6FF452A400D884FF6FF7606EA9A
:101AB00005252A434DF6FF752B400D8906EA0535AD
:101AC0002B434D8806EA05352B430B4DA84202D027
:101AD0000A4DA84208D14BF6FF752C408D894FF670
:101AE000FF7606EA85152C4384808283CD88A0F892
:101AF0004050038470BD0000002C014000340140C0
:101B00000A460021818B4FF2FF7319404FF6FF7395
:101B100003EA022319438183704781867047A0F846
:101B20004010704781847047028B4FF6F3731A4060
:101B30000283028B0A4302837047028B4FF2FF330A
:101B40001A400283028B4FF6FF7303EA01231A4304
:101B500002837047828B4FF6F3731A408283828B25
:101B60000A4382837047828B4FF2FF331A4082838D
:101B7000828B4FF6FF7303EA01231A438283704777
:101B8000002202881D4B98420ED01D4B98420BD06C
:101B9000B0F1804F08D01B4B984205D01A4B9842A9
:101BA00002D01A4B984204D14FF68F731A404B88DB
:101BB0001A43174B984207D0164B984204D04FF661
:101BC000FF431A40CB881A4302808B8883850B8899
:101BD00003850A4B98420BD0094B984208D00E4B14
:101BE000984205D00D4B984202D00D4B984201D13E
:101BF0000B7A03860123838270470000002C01408A
:101C0000003401400004004000080040000C004087
:101C1000001000400014004000400140004401401A
:101C2000004801404FF6FF71818000210180C18092
:101C3000418001727047000010B540F225511F48E5
:101C400000F04EF830B31D4800F006F9C4B221464A
:101C50001A4800F006F91A48008800F40040C8B994
:101C60001748008800F4804060B10A2C03D000209F
:101C70001349088020E01248008840F400401049D1
:101C8000088019E00D2C06D10D48008840F48040F2
:101C90000B49088010E00A480088C0F30D0009498C
:101CA0000C5407480088401C0549088008460088F5
:101CB000C72801DD0020088010BD0000004400405E
:101CC00068000020DC00002021B1828942F400522B
:101CD000828104E082894DF6FF731A408281704749
:101CE00070B50246002400230025002040F66A1645
:101CF000B14200D100BFC1F3421501F01F0301261C
:101D000006FA03F3012D02D19689334006E0022D35
:101D100002D1168A334001E0968A33400C12012624
:101D200006FA04F41688344013B10CB1012000E027
:101D3000002070BDF0B503460024002600250020D9
:101D400040F66A17B94200D100BF1846C1F34214E9
:101D500001F01F06012707FA06F5012C01D10C300E
:101D600004E0022C01D1103000E014301AB10768F1
:101D70002F43076002E00768AF430760F0BD000033
:101D80002DE9F04786B005460E460024A24600BF66
:101D9000A1460027B08900B100BF2F462C8A4CF61F
:101DA000FF700440F08804432C82AC894EF6F31097
:101DB0000440B08831890843718908430443AC81E9
:101DC000AC8A4FF6FF400440B0890443AC8201A8BE
:101DD000FFF7A6FA1F48874202D1DDF810A001E004
:101DE000DDF80CA0A88900F4004040B10AEBCA005D
:101DF00000EB0A1031684900B0FBF1F807E00AEB8C
:101E0000CA0000EB0A1031688900B0FBF1F86420C9
:101E1000B8FBF0F004012009642101FB1089A889B6
:101E200000F4004040B1322000EBC900B0FBF1F0FB
:101E300000F00700044308E0322000EB09106421A1
:101E4000B0FBF1F000F00F0004432C8106B0BDE8B8
:101E5000F08700000038014001468888C0F3080080
:101E60007047C1F308028280704700BFFEE70000A0
:101E70002DE9FF4704460D4616466019801B384978
:101E8000086038480068FEF7A8FB0746364A374B1B
:101E9000FEF7B9FA81468A4631480068FEF79DFB95
:101EA0000746314A324BFEF7AEFA4A465346CDE971
:101EB0000001FEF701FACDE90201FEF7B8FB2D495A
:101EC000086008460068274908602B4800682949CF
:101ED00009680844284908600846006842F2107101
:101EE000884202DD084624490860234800682349E7
:101EF000884202DA0846204908601F480068FEF759
:101F000063FB82461E4801685046FEF765F980462D
:101F100018480068FEF758FB82461A480168504688
:101F2000FEF75AF981464146FEF7FEF80746FEF7EE
:101F300065FB15490860154915480068FEF7DEFB8A
:101F400005D3144912480068FEF7E2FB02D20020D4
:101F5000094908600C48006804B0BDE8F08700003B
:101F6000B8000020C40000209A9999999999E93FF6
:101F70009999C93FC0000020BC000020F0D8FFFFA5
:101F8000B0000020AC000020B4000020000020C2FF
:101F900078000020000020422DE9F84F05460E464B
:101FA000144631462846FEF714F98146FEF726FB13
:101FB000804621460C480068FEF70EF90090404626
:101FC000FEF702FB8346094801685846FEF704F90C
:101FD00082460099FEF7A8F88146FEF70FFB0746F8
:101FE0003846BDE8F88F0000A8000020A4000020BB
:101FF000490050EAC12018BF04204A0D18BF40F024
:10200000010040F2FF72B2EB515F08BF40F00200E6
:10201000012808BF052070472DE9F0414F1E00EB55
:10202000C7010446D1E9000115461E4637F00602F5
:102030000DD02A463346FEF7E6F97F1E04EBC703B0
:10204000D3E90023FEF738F937F00602F1D1022F69
:1020500025D0042F13D0062F18BFBDE8F0812A46E3
:102060003346FEF7D0F9D4E90A23FEF725F92A46CC
:102070003346FEF7C8F9D4E90823FEF71DF92A46CE
:102080003346FEF7C0F9D4E90623FEF715F92A46D0
:102090003346FEF7B8F9D4E90423FEF70DF92A46D2
:1020A0003346FEF7B0F9D4E90223FEF705F92A46D4
:1020B0003346FEF7A8F9D4E90023BDE8F041FEF766
:1020C000FBB80122FEF7F3BBFEF7F6B80022134679
:1020D00010461146FEF709BA024A00201107FEF722
:1020E000E6BB000001FDFFFF02E008C8121F08C1A7
:1020F000002AFAD170477047002001E001C1121F89
:10210000002AFBD1704700000149086070470000B9
:10211000C80000200146002901DA484200E00846D4
:10212000704700002DE9F04D8D4F21F0004A86B038
:1021300005460C46BA452ADBAAEB070028430AD01D
:102140008848824501DC1AD1CDB106B02846BDE8E9
:10215000F04DFFF7B6BF844A844B2846FEF753F98B
:1021600007460E46824A834B28462146FEF74BF926
:1021700006B03A463346BDE8F04DFEF79DB8012063
:10218000FFF7C2FF06B0BDE8F04DFFF79FBF7A48EA
:10219000824542DABAF1795F0BDA2846FFF728FF69
:1021A000042808BFFFF798FF284606B02146BDE87F
:1021B000F08D2A460B461046FEF725F98346024667
:1021C0006E480E460B4606217844FFF725FF5A4617
:1021D0003346FEF718F9804669488A465A46334620
:1021E00004217844FFF718FF5A463346FEF70BF9EF
:1021F00000223B46FEF760F802460B464046514639
:10220000FEF773F92A462346FEF7FDF806B02A4684
:102210002346BDE8F04DFEF74FB8284624F00041B4
:1022200000223D463B46FEF7EBF84FF0FF32FEF74B
:102230003EFB0646024653480F460B4606217844AD
:10224000FFF7EAFE32463B46FEF7DDF8CDE9000136
:102250004D4832463B4604217844FFF7DDFE3246C6
:102260003B46FEF7D0F800222B46FEF725F88346C2
:1022700002913046394600F06FFE804643480D46D5
:10228000504517DCDDE900015A46029BFEF72DF9A7
:1022900042462B46FEF7B7F842462B46FEF70CF8AF
:1022A0000122FEF704FB304A304BFEF7A6F8304A15
:1022B000304B4CE04FF0000A52460B464046FDF7CB
:1022C000FBFFCDE9031052462B4610461946FEF798
:1022D0009AF832463B46FEF793F8DDE90332FEF703
:1022E00004F906460F46DDE900015A46029BFEF757
:1022F000FCF883460091012230463946FEF7D7FAB2
:10230000194A1A4BFEF77CF806460F460122404652
:102310002946FEF7CCFA5A46009BFEF774F832467F
:102320003B46FEF76AF806460F460122504629460C
:10233000FEF7BDFA0E4DDFF858802A464346FEF7F9
:102340005FF832463B46FEF75BF82A464346FEF707
:1023500057F8002CD8BF81F0004106B0BDE8F08DE1
:102360000000F03F0000F07F075C143326A6913C8C
:10237000182D4454FB21F93F0000E03FCC0E000033
:10238000E20E0000560E00006C0E00003333EF3FEB
:10239000FB21E93F2DE9F84F04460D4621F00040AE
:1023A00000917349814211DC7249884201DC06D1F7
:1023B0002CB120462946BDE8F84FFFF782BE6E4893
:1023C000002DCCBF6D496E49BDE8F88F6D49814243
:1023D00011DD6D498142D8BF4FF0FF366DDD2046DB
:1023E0002946FFF705FE042808BFFFF775FE2046C3
:1023F0002946BDE8F88F6549654F25F000458142C3
:1024000033DD6449814219DD002632464FF08043B6
:1024100020462946FDF750FF80468A460122204685
:102420002946FEF744FA00223B46FDF7E6FF424606
:102430005346FEF75AF804460D463EE001260022B8
:10244000BA463B4620462946FDF736FF80460F46F2
:102450000022534620462946FDF7CFFF42463B4621
:10246000FEF743F804460D4627E04B4981421BDD49
:10247000DFF828A102260022534620462946FDF710
:10248000C2FF00223B46FDF717FF80460F460022A1
:10249000534620462946FDF7B0FF42463B46FEF72D
:1024A00024F804460D4608E0032622462B46002069
:1024B0003B49FEF71AF804460D4622462B461046C5
:1024C0001946FDF7A0FF8B46824602460B46FDF7F4
:1024D0009AFF07460246334888460B460621784451
:1024E000FFF79AFD52465B46FDF78DFF82462E4868
:1024F0008B463A46434605217844FFF78DFD3A4620
:102500004346FDF780FF02460B46002E50465946D3
:102510000CDAFDF7D1FE22462B46FDF774FF01B021
:1025200022462B46BDE8F04FFDF76ABFFDF7C4FE1B
:1025300022462B46FDF767FF1C4A7A4402EBC6038E
:10254000D3E90023FDF759FF22462B46FDF755FF3F
:10255000174A7A4402EBC603D3E90023FDF750FF84
:10256000009A002AB8BF81F00041BDE8F88F000052
:10257000000010440000F07F182D4454FB21F93F67
:10258000FB21F9BF0000DC3F0000203E0000F33FCC
:102590000000F03F0000E63F008003400000F83FED
:1025A0000000F0BF6E0C00002C0C0000CA0B0000F5
:1025B000920B00002DE9F04D9446CCF1000423F07D
:1025C00000464CEA0404594F46EAD4749A468846B9
:1025D00021F00042BC4206D8454240EA050442EAE6
:1025E000D474BC4204D9BDE8F04D6246FFF76CBD1F
:1025F000AAF14055A5F17F6555EA0C040BD00224E1
:1026000004EAAA744A4DDFF82CE144EAD87452EA8D
:10261000000B04D00CE0BDE8F04DFFF7BBBE002C72
:1026200014BF012CBDE8F08D022C30D0032C32D029
:1026300056EA0C0B0AD0BE4220D1BA4209D126F08C
:10264000804622F080423346114617E000291ADB0B
:1026500025E0DFF8E4B0FB44002C04BFDBE9000117
:10266000BDE8F08D012C02BFDBE9000181F00041E3
:10267000BDE8F08D022C0AD0032C0CD0BA4212D146
:10268000B8F1000F0BDA2A482C49BDE8F08D284636
:102690002B49BDE8F08D28467146BDE8F08D2448F1
:1026A0002849BDE8F08D921B12153C2AC4BF204F6B
:1026B000244E10DCBAF1000FBEBF12F13C0F002710
:1026C0003E4608DB6246FDF710FF21F00041FFF7B0
:1026D00061FE07460E4694B1012C08BF86F0004605
:1026E0000DD0194A194B022C3846314615D0FDF74A
:1026F00084FE2A46BDE8F04D114BFDF77EBE002258
:10270000134638463146FDF7C5FF04BF0220FFF7E8
:10271000FBFC38463146BDE8F08DFDF76EFE2A46DB
:10272000BDE8F04D064BFDF76BBE00000000F07FEA
:10273000182D4454FB2109C0260B0000FB21F9BFD2
:10274000FB210940FB21F93F075C143326A6A13C7D
:102750002DE9F0410446E07800F0C006E07800F092
:102760003F05607800F0010098B1EF102846E917A6
:1027700005EB5171C910A5EBC101491C01F0FF081F
:102780000B48006820B10A48414602683846904725
:1027900000BF607800F0080030B10548406818B10B
:1027A000B011034A516888470020BDE8F08100005D
:1027B000CC00002010B56FF00400FEF7CDFE0A48F3
:1027C00000680A49B0FBF1F0094908700846007832
:1027D00000EB4001C1EBC0104FF6FF7101EAC000F1
:1027E0000449088010BD00000000002000127A009B
:1027F000280000202A0000200146114A12884A437E
:102800004FF0E0235A6100229A611A46126942F0A1
:1028100001021A6100BF4FF0E022106900F00102CE
:102820001AB100F48032002AF5D04FF0E02212698C
:1028300022F001024FF0E0231A6100229A617047F2
:102840002A0000200146114A12784A434FF0E02343
:102850005A6100229A611A46126942F001021A6115
:1028600000BF4FF0E022106900F001021AB100F43D
:102870008032002AF5D04FF0E022126922F00102E6
:102880004FF0E0231A6100229A617047280000206F
:102890002DE9F04F8DB00746884615469946DDE98B
:1028A000166B0024002030806B49887B5A4605A9AE
:1028B00000F00EFA18B1601E0DB0BDE8F08F66484A
:1028C000807A00F01400002867D09DF814000006FC
:1028D0009DF8151040EA01409DF8161040EA0120CD
:1028E0009DF81710084328609DF8180000069DF811
:1028F000191040EA01409DF81A1040EA01209DF8A5
:102900001B10084368609DF81C0000069DF81D1010
:1029100040EA01409DF81E1040EA01209DF81F107A
:102920000843A8609DF8200000069DF8211040EAA9
:1029300001409DF8221040EA01209DF82310084331
:10294000E86004F11000C4B22868001401906868BF
:1029500000140290A86800140390E8680014049022
:1029600001984043029901FB0100039901FB01001A
:10297000049901FB010ABAF1706F02DBBAF1885FBA
:1029800005DD00F005FA00203080401E94E7B6F91E
:10299000000040F48070308000BF2F48807A00F043
:1029A000400020B305A9601C085C095D40EA0120D5
:1029B00000B2A8F8000005A9E01C095C05AAA01C4B
:1029C000105C41EA002000B2A8F8020005A9601DD1
:1029D000095C201D105C41EA002000B2A8F8040048
:1029E000A01DC4B2B6F9000040F0080030801A48BB
:1029F000408900F4C07008B305A9601C085C095D3B
:102A000040EA012000B2388005A9E01C095C05AA53
:102A1000A01C105C41EA002000B2788005A9601D6E
:102A2000095C201D105C41EA002000B2B880A01DA6
:102A3000C4B2B6F9000040F0700030800648807AD9
:102A400000F0030018B105A90819FFF781FE4846F8
:102A500000F02AF800202FE7CC000020FFF7AAFEA4
:102A60000E4800F09FFAFDF7EFFFFDF79DFF0021F4
:102A700041F61F40FEF7DCFBFEF7C0F901200849D4
:102A8000086000200749C1F8BC0105490839086001
:102A900001200449C1F8B40100BFFEE720A10700EE
:102AA000B881214200802142704700002DE9F04F9B
:102AB00099B004460D4616464FF07E574FF0000879
:102AC0004FF000094FF0000A12A813A918AB0EAA84
:102AD000CDE9001014A916A8FFF7DAFE18B10120FD
:102AE00019B0BDE8F08FBDF84C0000F480700028EC
:102AF0007ED00E98FDF768FD83464FF09D41FDF7AF
:102B00009DFB07460F98FDF75FFD83464FF09D4103
:102B1000FDF794FB80461098FDF756FD83464FF075
:102B20009D41FDF78BFB81461198FDF74DFD8346D6
:102B30004FF09D41FDF782FB824639464FF08040C1
:102B4000FDF74AFB49460590FDF746FB41460790D5
:102B50004FF04040FDF740FB51460590FDF73CFB30
:102B600006900799FDF7E0FA8346FDF77FFDCDE972
:102B70000801FFF7D7FA4FF06632544BCDE90A014E
:102B8000FDF741FCCDE90C01FDF79CFD20604946B5
:102B90004FF08040FDF720FB49460290FDF71CFBFB
:102BA000414604904FF04040FDF716FB414602902D
:102BB000FDF712FB03900499FDF708FB83464FF0E5
:102BC0007E51FDF7B1FA0590FDF750FDCDE9080102
:102BD00039464FF08040FDF7FFFA41460390FDF77C
:102BE000FBFA494604904FF08040FDF7F5FA00E00B
:102BF00068E051460390FDF7EFFA83460499FDF72C
:102C000093FA0590FDF732FDCDE90601DDE90823D1
:102C1000FFF7D0FC4FF066322C4BCDE90A01FDF7EF
:102C2000F2FBCDE90C01FDF74DFD28605146504601
:102C3000FDF7D2FA494604904846FDF7CDFA4146E1
:102C400003904046FDF7C8FA394601903846FDF733
:102C5000C3FA00900199FDF767FA02900399FDF716
:102C6000B5FA83460499FDF7B1FA0590FDF7FEFC2D
:102C7000CDE9080151463846FDF7AEFA49460490C1
:102C80004046FDF7A9FA03900499FDF74DFA4FF07D
:102C900080410590FDF7A0FA8346FDF7E7FCCDE9FA
:102CA0000601DDE90823FFF785FC4FF06632074B8C
:102CB000CDE90A01FDF7A7FBCDE90C01FDF702FD07
:102CC000306001E002200BE7002009E766A64C40D7
:102CD000F8B504460F4616462C4890F8240010B963
:102CE0004FF0FF30F8BD2948807A10B94FF0FF301F
:102CF000F8E7264A1268917A244A526810786B469F
:102D00000222FEF7EFF910B14FF0FF30EAE79DF82D
:102D100001009DF8001040EA0125A54203DA0020D9
:102D20003070401EDEE7194840684088B5EB600F00
:102D300017DD164A1268517C144A526810786B46A7
:102D40000122FEF7CFF910B14FF0FF30CAE79DF82E
:102D5000000000F0100020B100F01AF86FF0010040
:102D6000C0E7E2B2094B1B68D97A084B5B68187858
:102D70003B46FEF7B7F910B14FF0FF30B2E795FBD5
:102D8000F4F0401E30700020ACE700002C00002062
:102D900008B57048807A10B94FF0FF3008BD0020A8
:102DA00000906C4A1268D17B6A4A526810786B4670
:102DB0000122FEF7D1F910B14FF0FF30EEE7654A7E
:102DC00012685179634A526810786B460122FEF707
:102DD000C3F910B14FF0FF30E0E75E4A1268117995
:102DE0005C4A526810786B460122FEF7B5F910B1C3
:102DF0004FF0FF30D2E7574890F82400002853D016
:102E00000C200090534A12681179524A5268107887
:102E10006B460122FEF7A0F910B14FF0FF30BDE77D
:102E20003220FFF7E9FCC02000904A48807A00F089
:102E3000010020B19DF8000040F020000090454ABC
:102E400012681179434A526810786B460122FEF7E6
:102E500083F910B14FF0FF30A0E73E48407C10B13D
:102E60000220009001E0002000903A4A1268D17BD5
:102E7000384A526810786B460122FEF76DF910B19E
:102E80004FF0FF308AE700200090324A12685179F3
:102E9000304A526810786B460122FEF75DF900282F
:102EA00055D04FF0FF3079E704200090294A12688E
:102EB0001179284A526810786B460122FEF74CF9C6
:102EC00010B14FF0FF3069E72248807C20B92148DB
:102ED000807A00F0010010B94020009001E06020ED
:102EE00000901C4A126811791A4A526810786B4691
:102EF0000122FEF731F910B14FF0FF304EE73220DA
:102F0000FFF77AFC1348407C10B10120009001E0EB
:102F1000002000900F4A1268D17B0E4A5268107848
:102F20006B460122FEF718F910B14FF0FF3035E77C
:102F3000084A12685179074A52681078054B1033D5
:102F40000122FEF709F910B14FF0FF3026E700200B
:102F500024E700002C0000202DE9F04106460F4632
:102F6000FDF7CEFC041E0D4618BF0120284320F0BB
:102F70000040C0F17F6000F1E040C00F0ED0301C77
:102F800018BF0120384320F00040C0F17F6000F1FD
:102F9000E040C00F04BF0120FFF7B6F820462946E5
:102FA000BDE8F08110B586B0044601210420FEF78B
:102FB000A7F901214804FEF793F90420ADF81400A5
:102FC00003208DF8160018208DF8170005A91C485D
:102FD000FDF71AFE0820ADF8140004208DF8170044
:102FE00005A91748FDF710FE26208DF800000320E4
:102FF0008DF801008DF8020001208DF8030068466D
:10300000FEF7DEF801940020ADF80800ADF80A00E4
:10301000ADF80C00ADF810000C20ADF80E0001A9C1
:103020000848FEF7ADFE012240F225510548FEF7A3
:1030300081FE01210348FEF747FE06B010BD0000E7
:10304000000801400044004075191A0C6A231B1C3B
:103050001F207274433B4138393A6B6C376F06243A
:103060006D6E70006800000476005401F7FD0001E9
:103070008300000000080000000100183200050075
:10308000000020410000D242295C0F3E9A99993EEF
:103090003333733F295C0F3E555555555555C53F44
:1030A0007D6FEB0312D6D4BF5544880E55C1C93F7E
:1030B0003B8F68B52882A4BF88B20175E0EF493F15
:1030C00009F7FD0DE13D023F4B2D8A1C273A03C055
:1030D000C88A599CE52A004059018D1B6C06E6BF41
:1030E00082922EB1C5B8B33F4FBB610567ACDD3FDF
:1030F000182D4454FB21E93F9BF681D20B73EF3F1F
:10310000182D4454FB21F93FE2652F227F2B7A3C96
:10311000075C143326A6813CBDCBF07A8807703C4F
:10312000075C143326A6913CC4EB98999999C9BFC2
:10313000711623FEC671BCBF6D9A74AFF2B0B3BFF7
:103140009AFDDE522DDEADBF2F6C6A2C44B4A2BFB7
:103150000D5555555555D53FFF8300922449C23F23
:103160006E204CC5CD45B73F513DD0A0660DB13F57
:10317000EB0D76244B7BA93F11DA22E33AAD903F69
:103180000000000000000000A8310008000000203E
:10319000CC000000E820000874320008CC000020B9
:1031A000DC040000F820000800A24A04000000002F
:1031B00000000000010203040607080900000000E7
:1031C00001020304010203040607080902040608B9
:1031D00000000000483000086430000800000000D3
:1031E00000000000000000000000000000000000DF
:1031F0000000000000000000000000007030000827
:1032000001000000010000000100000000000000BB
:1032100000000000000000000000000000000000AE
:10322000000000000000000000000000000000009E
:10323000000000000000000000000000000000008E
:103240000000000000000000000000000000344406
:1032500000008C42CDCC4C3E6F12833A000000003F
:10326000000000000000000000000000000000005E
:04327000000000005A
:0400000508000105E9
:00000001FF
